:1000000012C062C193C02AC010C228C027C026C037
:1000100025C057C223C022C021C020C01FC01EC09F
:100020001DC01CC01BC011241FBECFE5D4E0DEBF25
:10003000CDBF10E0A0E6B0E0E8EBF6E002C005902E
:100040000D92AE3AB107D9F721E0AEEAB0E001C0B7
:100050001D92A83CB207E1F759D22CC3D1CF989B8F
:1000600086B3989B02C0B19B0AC0A09AA89886B399
:100070009EEF94BBA89A81FF04C080E0089583E0BE
:10008000089582E0089586B382FB882780F991E085
:1000900089270895B09B80B3B09B06C080B380953C
:1000A000881F8827881F089580E00895869B80B365
:1000B00080B380E008959091C001E091BB00F0E032
:1000C000E354FF4F80838091C0018F5F8093C00114
:1000D0008091BB008F5F8093BB000895F89480915E
:1000E000C001882391F0E091BC00F0E0E354FF4FA1
:1000F00080819091C00191509093C0019091BC007B
:100100009F5F9093BC007894089580E0FCCFA82F67
:10011000A295AF70B0E0A256BF4F8F70E82FF0E00D
:10012000E256FF4F9C918081892708951F920F927C
:100130000FB60F9211242F933F934F935F936F93BA
:100140007F938F939F93AF93BF93EF93FF93809190
:10015000BF01882329F18091BF018230E9F58091A8
:10016000B6008230A9F0833079F0813051F180916E
:10017000C10180FF07C0BF988091C101869580931F
:10018000C10109C0BF9AF8CF8091C201882311F044
:10019000BF9801C0BF9A8091B60081508093B6008D
:1001A000FF91EF91BF91AF919F918F917F916F914F
:1001B0005F914F913F912F910F900FBE0F901F9025
:1001C0001895B79B03C01092BF0102C08093BF0176
:1001D0008CE08093B600DFCF8091B6008230D1F002
:1001E0008B3041F0813059F4B79BEDCF8091C10144
:1001F00062DFEECFB79BCFCF1092BF01CCCF809103
:10020000C10186958093C101B79BC5CF8091C10183
:100210008068B5CF8091C1017ADF96B3991F992785
:10022000991F9813E9CFB7CF8B98BF981092BB0056
:100230001092BC001092C00181E08093BF018BE05E
:100240008093B60080E88ABF8BB780688BBF85B784
:100250008C7F826085BF0895CF93C0E8CABF9BB7EB
:100260009F779BBF93988B9AE7ECF0E03197F1F77B
:1002700000C00000C798BF9A8B981092C0011092DE
:10028000BB001092BC0092E09093BF019BE0909362
:10029000B6008093C1013BDF8093C201CABF8BB718
:1002A00080688BBF85B78C7F826085BFCF910895B2
:1002B0008091C0018823E1F311CFCEDFF9DF8A3FBF
:1002C00011F01092BF0108951F920F920FB60F9276
:1002D00011248F9380B382FB882780F98093B40028
:1002E00081E0809360008F910F900FBE0F901F9060
:1002F0001895899AA59A8A9A8898AD9891980895A0
:10030000282F98E080E027FF12C0919A220F3DE04D
:100310003A95F1F70000AD9A880F809981603DE031
:100320003A95F1F70000AD98915069F708959198CA
:10033000EDCF94E0699FB00111246C708370862B1F
:10034000DFCF0F931F93CF93DF93182FD62FC42F98
:10035000022F8AEAD5DF802FD3DF812FD1DF8D2FC7
:10036000CFDF8C2FDF91CF911F910F91C9CFA9982B
:100370008FE784BD87E085BD08951092C301209169
:10038000C6016091C4017091C5014091B9005091BE
:10039000BA00E091BD01F091BE018091B500281333
:1003A00009C06115710531F44115510539F43097D3
:1003B00029F4089560388FEF7807ACF1862F603804
:1003C00071050CF08FE7681B710987FD73957093B9
:1003D000C5016093C40160E840389FEF59072CF0D5
:1003E000642F403851050CF06FE7461B510967FD3B
:1003F00053955093BA004093B90048EFE83F9FEF00
:10040000F9072CF04E2FE830F1050CF047E0E41B23
:10041000F10947FDF395F093BE01E093BD012093F0
:10042000B5008FDFA4CF80E8CECF1F920F920FB61A
:100430000F92112415BCA99A0F900FBE0F901F9018
:1004400018958091C00190E02091C701211136C01C
:1004500023E030E0821793070CF408953FDE8770A5
:100460008093C6013BDE2091C4013091C501280F65
:10047000311D87FD3A953093C5012093C4012EDECE
:100480002091B9003091BA00281B310987FD3395BE
:100490003093BA002093B9008091C701882389F274
:1004A0001DDE2091BD013091BE01280F311D87FD59
:1004B0003A953093BE012093BD01C3CF24E030E0D4
:1004C000C9CF1F920F920FB60F9211248F938FE90D
:1004D00082BF8F910F900FBE0F901F90189531CF54
:1004E00080E487B986E886B9089597B1907F8F70C8
:1004F000982B97B9369A3699FECF84B195B1089565
:10050000982F9D7F81E009F480E0089590E080E0DD
:10051000C9D08093B700833018F081E08093B70092
:10052000B898C09AB998C19ABA98C29ABB9AC39A15
:10053000BC98C49ABD9AC59ABE9AC69ABF98C798E5
:10054000A098A89AA19AA998A298AA98A398AB98BB
:10055000A498AC98A59AAD98A698AE9A8898909AC7
:10056000899A91988A98929A8B9893988C9A949A4F
:100570008D98959A8E98969A8F98979A85E083BFD2
:100580008FE982BF12BC87E085BD8FE784BD13BCB5
:100590008BB780648BBF84E085BF80E48ABF19BEBF
:1005A00089B7816489BF80E888B910BE789457DD27
:1005B0008093B30068DD8093B2006CDD8093B1005E
:1005C00075DD8093B0008091B3009ADF8093AF0017
:1005D00090DE6091AF008091B300ABDE25DE8FEF3F
:1005E0006CDE66DE8A3A79F11092BF01C0DECFE997
:1005F0008091C3018111C1DE24DF8091C301882372
:1006000011F0C2BFBADE8091B800811116C080918E
:10061000C6018370833089F48091BD019091BE0141
:1006200097FF38C08091B700882319F081508093DC
:10063000B7001092BE011092BD018091BF018823C6
:10064000B9F2A895D5CF34DE8111CECF8091B2001A
:100650008823A9F083EF31DE88EC2FDE83EF2DDED7
:1006600084E62BDE83EF29DE80E527DE82EF25DEC0
:100670001FDE91E0811101C090E09093C70188EEE8
:100680001CDE83E01ADE83EF18DE88E216DE84EFDC
:1006900014DEACCF892B89F28091B700823048F606
:1006A0008F5FC5CFE199FECF9FBB8EBBE09A9927A4
:0806B0008DB30895F894FFCF0B
:1006B800014D5A40000000080124252D2310101078
:1006C800113C3C2D2F3533253C302E30102610217F
:1006D8003C252D23003323322F2C2C292E270033A1
:1006E800253229212C002D2F35332521150900010C
:0E06F8000100010000010100000100010100ED
:00000001FF
