:1000000012C062C193C02AC077C228C0D1C126C025
:1000100025C0BEC223C022C021C020C01FC01EC038
:100020001DC01CC01BC011241FBECFE5D4E0DEBF25
:10003000CDBF10E0A0E6B0E0E8E2FAE002C0059033
:100040000D92AE3AB107D9F722E0AEEAB0E001C0B6
:100050001D92A13DB207E1F7F6D3E4C4D1CF989B3E
:1000600086B3989B02C0B19B0AC0A09AA89886B399
:100070009EEF94BBA89A81FF04C080E0089583E0BE
:10008000089582E0089586B382FB882780F991E085
:1000900089270895B09B80B3B09B06C080B380953C
:1000A000881F8827881F089580E00895869B80B365
:1000B00080B380E008959091C802E091C201F0E021
:1000C000EC53FE4F80838091C8028F5F8093C802FB
:1000D0008091C2018F5F8093C2010895F89480914E
:1000E000C802882391F0E091C301F0E0EC53FE4F89
:1000F00080819091C80291509093C8029091C30161
:100100009F5F9093C3017894089580E0FCCFA82F5F
:10011000A295AF70B0E0A05ABF4F8F70E82FF0E00B
:10012000E05AFF4F9C918081892708951F920F927A
:100130000FB60F9211242F933F934F935F936F93BA
:100140007F938F939F93AF93BF93EF93FF93809190
:10015000C702882329F18091C7028230E9F5809196
:10016000BB008230A9F0833079F0813051F1809169
:10017000CA0280FF07C0BF988091CA02869580930B
:10018000CA0209C0BF9AF8CF8091CB02882311F030
:10019000BF9801C0BF9A8091BB0081508093BB0083
:1001A000FF91EF91BF91AF919F918F917F916F914F
:1001B0005F914F913F912F910F900FBE0F901F9025
:1001C0001895B79B03C01092C70202C08093C70264
:1001D0008CE08093BB00DFCF8091BB008230D1F0F8
:1001E0008B3041F0813059F4B79BEDCF8091CA023A
:1001F00062DFEECFB79BCFCF1092C702CCCF8091FA
:10020000CA0286958093CA02B79BC5CF8091CA0265
:100210008068B5CF8091CA027ADF96B3991F99277B
:10022000991F9813E9CFB7CF8B98BF981092C2014E
:100230001092C3011092C80281E08093C7028BE044
:100240008093BB0080E88ABF8BB780688BBF85B77F
:100250008C7F826085BF0895CF93C0E8CABF9BB7EB
:100260009F779BBF93988B9AE7ECF0E03197F1F77B
:1002700000C00000C798BF9A8B981092C8021092D5
:10028000C2011092C30192E09093C7029BE0909349
:10029000BB008093CA023BDF8093CB02CABF8BB7FF
:1002A00080688BBF85B78C7F826085BFCF910895B2
:1002B0008091C8028823E1F311CFCEDFF9DF8A3FB6
:1002C00011F01092C70208951F920F920FB60F926D
:1002D00011248F9380B382FB882780F98093BD011E
:1002E00081E08093BF018F910F900FBE0F901F9000
:1002F00018951092BE011092C4021092C902109279
:10030000B9001092BA00AD989198909880B382FB92
:10031000882780F98093BD018091BD01882319F061
:1003200081E08093BF0108959091AF00913031F446
:1003300083B382958F708927817008958091AF0073
:10034000823039F483B382FB882780F991E08927D2
:1003500008958091AF00833029F483B383FB88270D
:1003600080F9F4CF81E008959091C902F894E0916A
:10037000BE01F0E0E354FF4F80838091C90291E019
:10038000980F9093C90281110CC08091BA0081111D
:1003900008C08EB5887F8EBD1DBC1CBC8EB5856027
:1003A0008EBD78948091BE018F5F8093BE010895C9
:1003B0001F920F920FB60F9211242F933F934F93DA
:1003C0005F936F937F938F939F93AF93BF93EF93BD
:1003D000FF93E091B900E13108F07DC0F0E0EE500C
:1003E000FE4F099410C05CC031C05AC02FC058C025
:1003F0002DC056C02BC054C029C052C027C050C009
:1004000025C04EC04FC090DF8823B9F181E08093B2
:10041000BA00E091C402F0E0E354FF4F8081809382
:10042000B80087E08093B7008091C4028F5F80930B
:10043000C4028091C90281508093C9028EB5887F21
:100440008EBD1DBC1CBC8EB581608EBDAD988091EB
:10045000B80090E02091B7003FEF320F3093B70023
:1004600002C0959587952A95E2F780FF17C0919A6B
:100470008091B9008F5F8093B900FF91EF91BF9198
:10048000AF919F918F917F916F915F914F913F912C
:100490002F910F900FBE0F901F9018959198E8CF55
:1004A000AD9AE6CF8091C90281110CC08EB5887FCC
:1004B0008EBD1DBC1CBC1092BA00AD9891981092D4
:1004C000B900DBCF8EB5887F8EBD1DBC1CBC8EB540
:1004D00085608EBDF2CF1092C702CFCF94E0699FA6
:1004E000B00111246C708370862B3ECFA9988FE7E2
:1004F00084BD87E085BD08951F920F920FB60F92BD
:10050000112415BCA99A0F900FBE0F901F9018953B
:100510008091C80290E02091D002211136C023E0E2
:1005200030E0821793070CF40895D8DD877080932C
:10053000CF02D4DD2091CD023091CE02280F311DA3
:1005400087FD3A953093CE022093CD02C7DD2091EE
:10055000C0013091C101281B310987FD33953093CB
:10056000C1012093C0018091D002882389F2B6DDB9
:100570002091C5023091C602280F311D87FD3A95A2
:100580003093C6022093C502C3CF24E030E0C9CF28
:100590001F920F920FB60F9211248F939F938FE9A2
:1005A00082BF8091B60091E0980F9093B600817061
:1005B0008093CC029F918F910F900FBE0F901F9050
:1005C00018958F929F92BF92CF92DF92EF92FF92F7
:1005D0000F931F93CF93DF93C82ED62EE42EB22E07
:1005E0008091BF018823D1F01092BF018FE59DE675
:1005F0000197F1F700C000008091AE00813009F052
:1006000052C050E7852E50E0952EF40181914F01A4
:10061000ABDEFDEA8F16F0E09F06B9F7B2FAFF24D1
:10062000F0F82C2D0C2C000C330B96E0359527950B
:100630009A95E1F7237020648D2D82958C70282B7C
:100640000B2D017010E035E0000F111F3A95E1F716
:10065000202BB1FABB24B0F8CB2DE0E0DE2FCE0189
:1006600044E0880F991F4A95E1F7822B7DDE8C2D9F
:100670008F737ADE8D2D8F7377DE8091AE0081309F
:1006800001F5F29480EFF8228E2D8F708F29DF9183
:10069000CF911F910F91FF90EF90DF90CF90BF907F
:1006A0009F908F9061CE8DE45FDE2FEB89E891E023
:1006B000215080409040E1F700C0000083E354DE09
:1006C000ADCFF11004C08091B500882339F08F2D93
:1006D0008295880F807E48DEF092B500DF91CF9141
:1006E0001F910F91FF90EF90DF90CF90BF909F9060
:1006F0008F9008951092CC028091BD01882309F457
:1007000085C09091CF028091B400981313C080915E
:10071000CD029091CE02892B69F48091C001909115
:10072000C101892B39F48091C5029091C602892BB1
:1007300009F46CC08091CD029091CE0280389F4F19
:100740000CF460C08091CD029091CE02803891056A
:100750000CF05AC08091CD029091CE022091CD0232
:100760003091CE02281B310987FD33953093CE029C
:100770002093CD022091C0013091C10160E8203862
:100780003F4F64F02091C0013091C1016FE72038E4
:10079000310524F46091C0017091C1012091C00124
:1007A0003091C101261B310967FD33953093C1019A
:1007B0002093C0012091C5023091C60248EF283F26
:1007C0003F4F64F02091C5023091C60247E02830C7
:1007D000310524F44091C5025091C6022091C50212
:1007E0003091C602241B310947FD33953093C60270
:1007F0002093C5029091CF029093B4002091CF0234
:10080000E0DE74CE80E8AACF8FE7A8CF089597B135
:10081000907F8F70982B97B9369A3699FECF84B116
:1008200095B10895CF93C82FAB9A83E0F0DFAB98D2
:100830008130924028F0CD7F82E019F481E001C040
:1008400083E0CF91089590E080E0E4D08093BC00F5
:100850008091BC00833018F081E08093BC00B89890
:10086000C09AB998C19ABA98C29ABB9AC39ABC98CE
:10087000C49ABD9AC59ABE9AC69ABF98C798A098BE
:10088000A89AA19AA99AA298AA98A398AB98A49872
:10089000AC98A59AAD98A698AE9A889A909A899A9B
:1008A00091988A98929A8B9893988C9A949A8D980A
:1008B000959A8E98969A8F98979A85E083BF8FE93C
:1008C00082BF1FBC88E08EBD8FE090E09BBD8ABDDB
:1008D00012BC87E085BD8FE784BD13BC8BB78064F5
:1008E0008BBF84E085BF80E48ABF81E589BF80E853
:1008F00088B910BE17B885E886B988E19EE00FB6C2
:10090000F894A89581BD0FBE91BD7894A8DB809323
:10091000B300B9DB8093B200BDDB8093B100C6DBCE
:100920008093B0008091B3007DDF8093AF00E1DC65
:100930006091AF008091B300D1DD76DC8FEFBDDC3C
:10094000B7DC8A3A89F11092C702D0DDCFE98091F5
:10095000CC028111CFDEDCDD8091CC02882311F046
:10096000C2BFC8DE8091AE00811118C08091CF0255
:100970008370833099F48091C5029091C60297FFED
:100980003AC08091BC00882329F08091BC0081503E
:100990008093BC001092C6021092C5028091C702DB
:1009A0008823A9F2A895D3CF83DC8111CCCF809185
:1009B000B2008823A9F083EF80DC88EC7EDC83EF33
:1009C0007CDC84E67ADC83EF78DC80E576DC82EF21
:1009D00074DC6EDC91E0811101C090E09093D00254
:1009E00088EE6BDC83E069DC83EF67DC88E265DC42
:1009F00084EF63DCAACF8091C5029091C6021816DD
:100A0000190664F68091BC00823020F68091BC000B
:100A10008F5FBECFE199FECF9FBB8EBBE09A992737
:080A20008DB30895F894FFCF97
:100A280000010100010000010100000100010100B6
:100A38004D5A40000000080124252D2310101011E4
:100A48003C3C2D2F3533253C302E30102610213CD0
:100A5800252D23003323322F2C2C292E2700332534
:0E0A68003229212C002D2F35332521150900B0
:00000001FF
