:1000000012C037C051C02AC0B9C128C0ECC026C038
:1000100025C0D8C023C022C021C020C01FC01EC020
:100020001DC01CC01BC011241FBECFE5D4E0DEBF25
:10003000CDBF10E0A0E6B0E0EAEDF9E002C0059027
:100040000D92A436B107D9F721E0A4E6B0E001C0D3
:100050001D92A238B207E1F732D3BDC4D1CF80E8F8
:100060008ABF8BB780688BBF85B7837F886085BF69
:1000700008951F920F920FB60F9211248F9380B3A1
:1000800082FB882780F980937C0181E0809377014F
:100090008091E90080937001109276018F910F900A
:1000A0000FBE0F901F9018951F920F920FB60F92D0
:1000B00011242F933F938F939F93EF93FF938091FE
:1000C0007301882329F1809173018230B9F5809101
:1000D00068008230A9F0833079F0813021F180917D
:1000E000780180FF07C0BF98809178018695809342
:1000F000780109C0BF9AF8CF80917A01882311F066
:10010000BF9801C0BF9A80916800815080936800B9
:10011000FF91EF919F918F913F912F910F900FBE83
:100120000F901F90189586B38095881F8827881F89
:10013000809373018CE080936800E5CF8091680024
:100140008230F9F08B3069F0813081F4B79B06C0C2
:10015000809178019091740197FF1EC010927301F5
:10016000E9CFB79BD0CF10927301CDCF80917801AA
:10017000869580937801B79BC6CF8091780180687F
:10018000B6CF809178011CD49C0196B390789217D9
:10019000130609F0B8CFE7CFE091EE00F0E0E051B0
:1001A000FF4F8083809174018F5F809374018091F1
:1001B000EE008F5F8093EE00803809F0BBCF109285
:1001C000EE00B8CF1F920F920FB60F9211248F93AB
:1001D0008FE982BF81E080937B018F910F900FBEEA
:1001E0000F901F9018951F920F920FB60F92112427
:1001F0002F938F939F93AF93BF93EF93FF93CF93DF
:10020000DF9300D000D0CDB7DEB780916000909131
:100210006100A0916200B091630089839A83AB83EF
:10022000BC8383B3E091EA0090E0EC0FFD2FF11D59
:10023000218102C0959587952A95E2F780FF0DC030
:100240008091ED00882349F08EB5887F8EBD1DBC5E
:100250001CBC8EB582608EBD09C080917601811173
:1002600017C08EB5887F8EBD1DBC1CBC0F900F9033
:100270000F900F90DF91CF91FF91EF91BF91AF91D0
:100280009F918F912F910F900FBE0F901F901895F7
:1002900081E08093ED00E0917001F0E0E759FF4FBD
:1002A0008081909170019F5F90937001903811F45C
:1002B0001092700190917601915090937601AD98D3
:1002C000000087FF4BC0919A0000AD9A0000AD98E6
:1002D000000086FF45C0919A0000AD9A0000AD98DD
:1002E000000085FF3FC0919A0000AD9A0000AD98D4
:1002F000000084FF39C0919A0000AD9A0000AD98CB
:10030000000083FF33C0919A0000AD9A0000AD98C1
:10031000000082FF2DC0919A0000AD9A0000AD98B8
:10032000000081FF27C0919A0000AD9A0000AD98AF
:10033000000080FF21C0919A0000AD9A0000AD98A6
:10034000919880917601882309F48BCF8EB5887FB0
:100350008EBD1DBC1CBC8EB581607DCF9198B4CF85
:100360009198BACF9198C0CF9198C6CF9198CCCFA1
:100370009198D2CF9198D8CF9198DECF1F920F92BB
:100380000FB60F92112415BCA99A0F900FBE0F90B3
:100390001F901895989902C0B19911C0989B02C0FE
:1003A000B19B0FC0A09AA89882E08A95F1F700C08F
:1003B00086B3A098A89A81FF06C080E0089581E0E6
:1003C000089583E0089582E0089586B382FB88272C
:1003D00080F991E089270895B09902C0879908C0F3
:1003E000B09B08C080B38095881F8827881F089518
:1003F00082E0089580E00895869902C0859906C03C
:10040000869B06C0859904C088E2089584E108951A
:1004100080E508952FB7F894809174018823B1F096
:10042000E091EF00F0E0E051FF4F80819091740186
:100430009150909374019091EF009F5F9093EF0023
:10044000903811F41092EF002FBF089580E0FCCF98
:100450001092EE001092EF001092740181E08093F0
:1004600073018BE080936800FACD90E89ABF9BB748
:100470009F779BBF93988B9AE7ECF0E03197F1F769
:1004800000C00000C798BF9A8B9810927401109218
:10049000EE001092EF0092E0909373019BE0909336
:1004A0006800809378018CD2F1E08F2780937A01E5
:1004B000D6CD809174018823E1F3ACCFD6DFF9DF8C
:1004C0008A3F11F01092730108959091760190384F
:1004D000E1F39FB7F894E091E900F0E0E759FF4FAE
:1004E00080838091760121E0280F2093760181118D
:1004F00008C08EB5887F8EBD1DBC1CBC8EB58160CA
:100500008EBD8091E9008F5F8093E900803811F4FF
:100510001092E9009FBF089594E0699FB0011124F3
:100520006C708370862BD1CF909A9FB7F8941092FD
:10053000E9001092700110927601109267001092FB
:10054000ED009098AD98919880B382FB882780F950
:1005500080937C0181E0809377019FBF6091EA00E6
:1005600080918101D9CF8091740190E02091800128
:10057000211136C023E030E0821793070CF4089570
:1005800049DF877080937F0145DF20917D013091A5
:100590007E01280F311D87FD3A9530937E0120930F
:1005A0007D0138DF2091EB003091EC00281B3109F0
:1005B00087FD33953093EC002093EB008091800110
:1005C000882389F227DF2091710130917201280F71
:1005D000311D87FD3A953093720120937101C3CF8D
:1005E00024E030E0C9CFEF92FF920F931F93CF9397
:1005F000DF93E82EF62E142F022F282F880F330BAF
:1006000096E0359527959A95E1F723702064862F1B
:1006100082958C70282BA02FA170B0E035E0AA0F36
:10062000BB1F3A95E1F72A2B01FBEE27E0F9F0E03A
:10063000CF0144E0880F991F4A95E1F7822B45DFEF
:100640008E2D8F7342DF8F2D8F733FDF809180015E
:10065000882379F002FB002700F9C02F80E0D82F13
:1006600084E0CC0FDD1F8A95E1F7812F8F708C2BF2
:100670002CDFA9988FE784BD87E085BDDF91CF91FE
:100680001F910F91FF90EF900895AB9A9DE09A957E
:10069000F1F7000097B1907F936097B9369A369939
:1006A000FECF24B135B1AB982130324020F08D7FA0
:1006B00021F082E0089583E0089581E00895B898DC
:1006C000C09AB998C19ABA98C29ABB9AC39ABC9870
:1006D000C49ABD9AC59ABE9AC69ABF98C79AA0985E
:1006E000A89AA19AA99AA298AA98A398AB98A49814
:1006F000AC98A59AAD98A698AE9A889A909A899A3D
:1007000091988A98929A8B98939A8C9A949A8D98A9
:10071000959A8E98969A8F98979A85E083BF8FE9DD
:1007200082BF1FBC88E08EBD8FE490E09BBD8ABD78
:1007300012BC87E085BD8FE784BD13BC80E48ABF0F
:100740008BBF81E085BF81E589BF80E888B910BE95
:1007500017B885E886B91EDE8093810136DE809366
:1007600066003ADE8093790147DE809375018091BF
:1007700081018BDF8093EA0084B714BE823059F484
:10078000A9982FEF80E792E0215080409040E1F758
:1007900000C00000A99A88E19EE00FB6F894A895E1
:1007A00081BD0FBE91BD7894BFDE52DE8FEF86DE35
:1007B00080DE8A3A09F4CFC01092730180917301F0
:1007C000882309F0A895CFDE80917B01882309F466
:1007D000ABC080917C01882309F4A6C010927B01F4
:1007E000809177018823A9F0109277018FE59DE62B
:1007F0000197F1F700C000008DE467DE9FEB29E868
:1008000081E0915020408040E1F700C0000083E388
:100810005CDE809165008F5F8370809365009091AE
:100820007901891708F480C090917F01809164005C
:10083000981313C080917D0190917E01892B69F4FA
:100840008091EB009091EC00892B39F4809171013B
:1008500090917201892B09F467C080917D0190917C
:100860007E0180389F4F0CF4A6C080917D0190914D
:100870007E01803891050CF0A0C080917D0190919F
:100880007E0120917D0130917E01281B310987FD79
:10089000339530937E0120937D012091EB003091C0
:1008A000EC0060E820383F4F64F02091EB0030917D
:1008B000EC006FE72038310524F46091EB00709173
:1008C000EC002091EB003091EC00261B310967FD14
:1008D00033953093EC002093EB002091710130911F
:1008E000720148EF283F3F4F64F020917101309131
:1008F000720147E02830310524F440917101509194
:1009000072012091710130917201241B310947FD60
:100910003395309372012093710190917F019093F0
:10092000640020917F015FDE80917B01811146CFC1
:1009300080917401811142CF8091760181113ECF67
:1009400085B78F7885BF85B7806885BF889585B75F
:100950008F7785BF33CFADDD81112ECF80916600BB
:10096000882331F183EFAADD88ECA8DD83EFA6DDD3
:1009700084E6A4DD83EFA2DD80E5A0DD82EF9EDDCD
:1009800098DD91E0811101C090E090938001A998D9
:100990008FE784BD87E085BD88EE90DD83E08EDD46
:1009A00083EF8CDD8091750189DD84EF87DD06CFD3
:1009B00010928001ECCF80E864CF8FE762CF892767
:1009C000082E029480258C5F8B7F8A5F83FD839540
:0A09D000817099270895F894FFCF75
:0409DA000004020310
:00000001FF
