:1000000012C061C192C02AC086C228C0D6C126C013
:1000100025C0CDC223C022C021C020C01FC01EC029
:100020001DC01CC01BC011241FBECFE5D4E0DEBF25
:10003000CDBF10E0A0E6B0E0E4E4FAE002C0059035
:100040000D92AE3AB107D9F721E0AEEAB0E001C0B7
:100050001D92A23EB207E1F77CD3F2C4D1CF989BA8
:1000600086B3989B02C0B19B09C0A09AA89886B39A
:10007000A098A89A81FF04C080E0089583E00895C5
:1000800082E0089586B382FB882780F991E0892772
:100090000895B09B80B3B09B06C080B38095881F45
:1000A0008827881F089580E00895869B80B380B3D9
:1000B00084EB08959091D401E091CE00F0E0E053FC
:1000C000FF4F80838091D4018F5F8093D401809112
:1000D000CE008F5F8093CE000895F8948091D40174
:1000E000882391F0E091CF00F0E0E053FF4F808152
:1000F0009091D40191509093D4019091CF009F5F43
:100100009093CF007894089580E0FCCFA82FA2951B
:10011000AF70B0E0A05ABF4F8F70E82FF0E0E05A08
:10012000FF4F9C918081892708951F920F920FB6EF
:100130000F9211242F933F934F935F936F937F936D
:100140008F939F93AF93BF93EF93FF938091D301CE
:10015000882329F18091D3018230E9F58091B7009D
:100160008230A9F0833079F0813051F18091D8014B
:1001700080FF07C0BF988091D80186958093D801F1
:1001800009C0BF9AF8CF8091DA01882311F0BF9897
:1001900001C0BF9A8091B70081508093B700FF9152
:1001A000EF91BF91AF919F918F917F916F915F91EF
:1001B0004F913F912F910F900FBE0F901F90189568
:1001C000B79B03C01092D30102C08093D3018CE08F
:1001D0008093B700DFCF8091B7008230D1F08B30B1
:1001E00041F0813059F4B79BEDCF8091D80162DFA7
:1001F000EECFB79BCFCF1092D301CCCF8091D80157
:1002000086958093D801B79BC5CF8091D80180682F
:10021000B5CF8091D8017ADF96B3991F9927991F9E
:100220009813E9CFB7CF8B98BF981092CE00109259
:10023000CF001092D40181E08093D3018BE08093B2
:10024000B70080E88ABF8BB780688BBF85B78C7F8B
:10025000826085BF0895CF93C0E8CABF9BB79F77E0
:100260009BBF93988B9AE7ECF0E03197F1F700C0D1
:100270000000C798BF9A8B981092D4011092CE00BC
:100280001092CF0092E09093D3019BE09093B7003F
:100290008093D8013BDF8093DA01CABF8BB78068B7
:1002A0008BBF85B78C7F826085BFCF910895809189
:1002B000D4018823E1F311CFCEDFF9DF8A3F11F0BB
:1002C0001092D30108951F920F920FB60F9211242E
:1002D0008F9380B382FB882780F98093DC0181E0D3
:1002E0008093D7018F910F900FBE0F901F9018959C
:1002F0001092C9001092D0011092D6011092B50050
:100300001092B600AD989198909880B382FB8827A0
:1003100080F98093DC018091DC01882319F081E071
:100320008093D70108959091CA00913031F483B33E
:1003300082958F708927817008958091CA008230DC
:1003400039F483B382FB882780F991E089270895E7
:100350008091CA00833029F483B383FB882780F916
:10036000F4CF81E008959091D6019031E1F3F894B3
:10037000E091C900F0E0E754FF4F80838091D601FF
:1003800091E0980F9093D60181110CC08091B60036
:10039000811108C08EB5887F8EBD1DBC1CBC8EB57A
:1003A00085608EBD78948091C9008F5F8093C9006D
:1003B000803111F41092C90008951F920F920FB668
:1003C0000F9211242F933F934F935F936F937F93DB
:1003D0008F939F93AF93BF93EF93FF93E091B500FB
:1003E000E13108F087C0F0E0E950FE4F099410C0F9
:1003F00066C03BC064C039C062C037C060C035C091
:100400005EC033C05CC031C05AC02FC058C059C094
:100410008ADF811104C08091CD0081113DC081E04F
:100420008093CD008093B600E091D001F0E0E754D6
:10043000FF4F80818093B30087E08093B20080916A
:10044000D0018F5F8093D001803111F41092D001E0
:100450008091D60181508093D6018EB5887F8EBD64
:100460001DBC1CBC8EB581608EBDAD988091B30063
:1004700090E02091B2003FEF320F3093B20002C003
:10048000959587952A95E2F780FF17C0919A8091FC
:10049000B5008F5F8093B500FF91EF91BF91AF9151
:1004A0009F918F917F916F915F914F913F912F918C
:1004B0000F900FBE0F901F9018959198E8CFAD9AAE
:1004C000E6CF8091D60181110CC08EB5887F8EBD9C
:1004D0001DBC1CBC1092B600AD9891981092B5004E
:1004E000DBCF8EB5887F8EBD1DBC1CBC8EB58560F4
:1004F0008EBDF2CF1092D301CFCF94E0699FB001AF
:1005000011246C708370862B2ECFA9988FE784BD41
:1005100087E085BD08951F920F920FB60F921124A8
:1005200015BCA99A0F900FBE0F901F90189580913F
:10053000D40190E02091E001211136C023E030E0A9
:10054000821793070CF40895C8DD87708093DF014C
:10055000C4DD2091DD013091DE01280F311D87FDC2
:100560003A953093DE012093DD01B7DD2091CB0079
:100570003091CC00281B310987FD33953093CC0096
:100580002093CB008091E001882389F2A6DD2091A1
:10059000D1013091D201280F311D87FD3A9530935A
:1005A000D2012093D101C3CF24E030E0C9CF1F9204
:1005B0000F920FB60F9211248F939F938FE982BFF2
:1005C0008091B10091E0980F9093B1008170809379
:1005D000DB019F918F910F900FBE0F901F90189588
:1005E0008F929F92BF92CF92DF92EF92FF920F93E2
:1005F0001F93CF93DF93C82ED62EE42EB22E809178
:10060000D7018823D1F01092D7018FE59DE601979D
:10061000F1F700C000008091AE00813009F052C0B7
:1006200050E7852E50E0952EF40181914F019BDE1D
:10063000FDEA8F16F0E09F06B9F7B2FAFF24F0F852
:100640002C2D0C2C000C330B96E0359527959A95A4
:10065000E1F7237020648D2D82958C70282B0B2D53
:10066000017010E035E0000F111F3A95E1F7202BE3
:10067000B1FABB24B0F8CB2DE0E0DE2FCE0144E090
:10068000880F991F4A95E1F7822B6DDE8C2D8F73B1
:100690006ADE8D2D8F7367DE8091AE00813001F5AB
:1006A000F29480EFF8228E2D8F708F29DF91CF91F9
:1006B0001F910F91FF90EF90DF90CF90BF909F9090
:1006C0008F9051CE8DE44FDE2FEB89E891E02150E1
:1006D00080409040E1F700C0000083E344DEADCFEE
:1006E000F11004C08091B000882339F08F2D8295DD
:1006F000880F807E38DEF092B000DF91CF911F919D
:100700000F91FF90EF90DF90CF90BF909F908F90D0
:10071000089597B1907F8F70982B97B9369A369934
:10072000FECF84B195B10895CF93C82FAB9A22E440
:100730002A95F1F700C083E0ECDFAB98813092405E
:1007400028F0CD7F82E019F481E001C083E0CF91F1
:10075000089590E080E06CD18093B8008091B8005B
:10076000833018F081E08093B800B898C09AB998A7
:10077000C19ABA98C29ABB9AC39ABC98C49ABD9AB5
:10078000C59ABE9AC69ABF98C798A098A89AA19AE7
:10079000A99AA298AA98A398AB98A498AC98A59A5D
:1007A000AD98A698AE9A889A909A899A91988A98C4
:1007B000929A8B9893988C9A949A8D98959A8E98F1
:1007C000969A8F98979A85E083BF8FE982BF1FBC66
:1007D00088E08EBD8FE090E09BBD8ABD12BC87E0B3
:1007E00085BD8FE784BD13BC8BB780648BBF84E06D
:1007F00085BF80E48ABF81E589BF80E888B910BEE3
:1008000017B885E886B988E19EE00FB6F894A895F8
:1008100081BD0FBE91BD1092CD00789420DC8093F5
:10082000E10130DC8093B40034DC8093D9013DDCFD
:100830008093D5018091E10177DF8093CA0058DD74
:100840006091CA008091E10158DEEDDC8FEF34DD6C
:100850002EDD8A3A09F4B4C01092D30156DE67DE69
:100860008091DB01882309F488C01092DB0180911C
:10087000DC01882309F481C09091DF018091AF00F1
:10088000981313C08091DD019091DE01892B69F4EA
:100890008091CB009091CC00892B39F48091D101CB
:1008A0009091D201892B09F468C08091DD0190916B
:1008B000DE0180389F4F0CF4A7C08091DD0190913C
:1008C000DE01803891050CF0A1C08091DD0190918E
:1008D000DE012091DD013091DE01281B310987FD09
:1008E00033953093DE012093DD012091CB003091D0
:1008F000CC0060E820383F4F64F02091CB0030916D
:10090000CC006FE72038310524F46091CB00709162
:10091000CC002091CB003091CC00261B310967FD23
:1009200033953093CC002093CB002091D1013091AE
:10093000D20148EF283F3F4F64F02091D101309120
:10094000D20147E02830310524F44091D101509183
:10095000D2012091D1013091D201241B310947FDF0
:1009600033953093D2012093D1019091DF01909380
:10097000AF002091DF0134DEC8DD8091AE0081112F
:1009800018C08091DF018370833099F48091D10188
:100990009091D20197FF3CC08091B800882329F044
:1009A0008091B80081508093B8001092D2011092CB
:1009B000D1018091D301882309F451CFA8954FCF5D
:1009C00076DC811149CF8091B400882389F083EFD0
:1009D00073DC88EC71DC83EF6FDC84E66DDC83EF25
:1009E0006BDC80E569DC82EF67DC61DC8093E00131
:1009F00088EE62DC83E060DC83EF5EDC8091D50111
:100A00005BDC84EF59DC2ACF80E863CF8FE761CFCE
:100A10008091D1019091D2011816190654F6809157
:100A2000B800823008F0C1CF8091B8008F5FBBCF93
:100A3000E199FECF9FBB8EBBE09A99278DB30895B5
:040A4000F894FFCF58
:100A4400000101000100000101000001000101009A
:100A54004D5A40000000080124252D2310101011C8
:100A64003C3C2D2F3533253C302E30102610213CB4
:100A7400252D23003323322F2C2C292E2700332518
:0E0A84003229212C002D2F3533252115090094
:00000001FF
