:1000000012C037C0B4C02AC068C028C0C3C126C04F
:1000100025C04AC023C022C021C020C01FC01EC0AE
:100020001DC01CC01BC011241FBECFE5D4E0DEBF25
:10003000CDBF10E0A0E6B0E0E0E0FAE002C005903D
:100040000D92A03AB107D9F722E0A0EAB0E001C0D2
:100050001D92A43CB207E1F758D3D0C4D1CF80E8B9
:100060008ABF8BB780688BBF85B78C7F826085BF66
:1000700008951F920F920FB60F9211248F9380B3A1
:1000800082FB882780F98093BE0281E08093B902C9
:100090008091AB018093B2021092B8028F910F90C1
:1000A0000FBE0F901F9018951F920F920FB60F92D0
:1000B00011248F939F938FE982BF8091A60091E0D6
:1000C000980F9093A60081708093BD029F918F91AD
:1000D0000F900FBE0F901F9018951F920F920FB6A2
:1000E0000F92112415BCA99A0F900FBE0F901F906C
:1000F0001895989B86B3989B02C0B19B09C0A09AA3
:10010000A89886B3A098A89A81FF04C080E00895BB
:1001100083E0089582E0089586B382FB882780F902
:1001200091E089270895B09B80B3B09B06C080B34F
:100130008095881F8827881F089580E00895869BF2
:1001400080B380B384EB08959091B602E091B00142
:10015000F0E0EE54FE4F80838091B6028F5F809373
:10016000B6028091B0018F5F8093B00108951F9215
:100170000F920FB60F9211242F933F934F935F93DB
:100180006F937F938F939F93AF93BF93EF93FF935F
:100190008091B502882329F18091B5028230E9F57A
:1001A0008091AA008230A9F0833079F0813051F13A
:1001B0008091BA0280FF07C0BF988091BA028695ED
:1001C0008093BA0209C0BF9AF8CF8091BC028823FD
:1001D00011F0BF9801C0BF9A8091AA00815080930E
:1001E000AA00FF91EF91BF91AF919F918F917F9165
:1001F0006F915F914F913F912F910F900FBE0F9094
:100200001F901895B79B03C01092B50202C080934F
:10021000B5028CE08093AA00DFCF8091AA008230E3
:10022000D1F08B3041F0813059F4B79BEDCF809104
:10023000BA028ADFEECFB79BCFCF1092B502CCCFF8
:100240008091BA0286958093BA02B79BC5CF809100
:10025000BA028068B5CF8091BA02C5D326B3022E08
:10026000000C330B2227330F221F332782179307EB
:1002700009F4B2CFE2CF2FB7F8948091B602882369
:1002800091F0E091B101F0E0EE54FE4F8081909149
:10029000B60291509093B6029091B1019F5F9093F6
:1002A000B1012FBF089580E0FCCF1092B0011092F1
:1002B000B1011092B60281E08093B5028BE0809389
:1002C000AA00CDCE90E89ABF9BB79F779BBF93982B
:1002D0008B9AE7ECF0E03197F1F700C00000C79887
:1002E000BF9A8B981092B6021092B0011092B10191
:1002F00092E09093B5029BE09093AA008093BA029B
:1003000072D38093BC02ABCE8091B6028823E1F316
:10031000B2CFD8DFF9DF8A3F11F01092B50208950D
:10032000909A9FB7F8941092AB011092B20210927B
:10033000B8021092A8001092A9001092AF019098F4
:10034000AD98919880B382FB882780F98093BE0294
:1003500081E08093B9029FBF08958091AC0188230A
:10036000A9F08091AC01843088F483B3E091AC01B2
:1003700090E0F0E0E15AFF4F208102C0959587950B
:100380002A95E2F780959095817008951092B502B4
:1003900081E008951F920F920FB60F9211242F93B0
:1003A0003F934F935F936F937F938F939F93AF93FD
:1003B000BF93EF93FF93E091A800E13108F087C06D
:1003C000F0E0EC51FE4F099410C066C03BC064C021
:1003D00039C062C037C060C035C05EC033C05CC0C9
:1003E00031C05AC02FC058C059C0B7DF811104C0F6
:1003F0008091AF0181113DC08091B8028823C9F17D
:1004000081E08093AF018093A900E091B202F0E017
:10041000E555FF4F80818093A50087E08093A4007D
:100420008091B2028F5F8093B2028091B8028150B6
:100430008093B8028EB5887F8EBD1DBC1CBC8EB566
:1004400081608EBDAD988091A50090E02091A400C0
:100450003FEF320F3093A40002C0959587952A95FF
:10046000E2F780FF17C0919A8091A8008F5F809378
:10047000A800FF91EF91BF91AF919F918F917F91D4
:100480006F915F914F913F912F910F900FBE0F9001
:100490001F9018959198E8CFAD9AE6CF8091B80259
:1004A00081110CC08EB5887F8EBD1DBC1CBC109206
:1004B000A900AD9891981092A800DBCF8EB5887FE7
:1004C0008EBD1DBC1CBC8EB585608EBDF2CF10925A
:1004D000B502CFCF9091B8029FB7F894E091AB01ED
:1004E000F0E0E555FF4F80838091B80221E0280FAE
:1004F0002093B80281110CC08091A900811108C01D
:100500008EB5887F8EBD1DBC1CBC8EB585608EBD32
:100510008091AB018F5F8093AB019FBF089594E002
:10052000699FB00111246C708370862BD3CF8091AA
:10053000B60290E02091C202211136C023E030E0E3
:10054000821793070CF4089596DE87708093C1029A
:1005500092DE2091BF023091C002280F311D87FD2D
:100560003A953093C0022093BF0285DE2091AD0101
:100570003091AE01281B310987FD33953093AE01D0
:100580002093AD018091C202882389F274DE20910C
:10059000B3023091B402280F311D87FD3A95309394
:1005A000B4022093B302C3CF24E030E0C9CF8F92CE
:1005B0009F92BF92CF92DF92EF92FF920F931F9381
:1005C000CF93DF93C82ED62EE42EB22E8091B9029F
:1005D0008823D1F01092B9028FE59DE60197F1F7DB
:1005E00000C000008091A000813009F058C053E69F
:1005F000852E50E0952EF40181914F016BDFF0EADA
:100600008F16F0E09F06B9F7B2FAFF24F0F82C2D10
:100610000C2C000C330B96E0359527959A95E1F755
:10062000237020648D2D82958C70282B0B2D0170EA
:1006300010E035E0000F111F3A95E1F7202BB1FAD9
:10064000BB24B0F8CB2DE0E0DE2FCE0144E0880FD4
:10065000991F4A95E1F7822B3DDF8C2D8F733ADF8E
:100660008D2D8F7337DF8091A000813031F5F294AA
:1006700080EFF8228E2D8F708F292CDFA9988FE7BD
:1006800084BD87E085BDDF91CF911F910F91FF90D1
:10069000EF90DF90CF90BF909F908F9008958DE462
:1006A00019DF2FEB89E891E0215080409040E1F77D
:1006B00000C0000083E30EDFA7CFF11004C08091DB
:1006C000A3008823D9F28F2D8295880F807E02DFC8
:1006D000F092A300D3CFAB9A9DE09A95F1F700007A
:1006E00097B1907F936097B9369A3699FECF24B12F
:1006F00035B1AB982130324020F08D7F21F082E07F
:10070000089583E0089581E00895B898C09AB99853
:10071000C19ABA98C29ABB9AC39ABC98C49ABD9A15
:10072000C59ABE9AC69ABF98C798A098A89AA19A47
:10073000A99AA298AA98A398AB98A498AC98A59ABD
:10074000AD98A698AE9A889A909A899A91988A9824
:10075000929A8B9893988C9A949A8D98959A8E9851
:10076000969A8F98979A85E083BF8FE982BF1FBCC6
:1007700088E08EBD8FE090E09BBD8ABD12BC87E013
:1007800085BD8FE784BD13BC8BB780648BBF84E0CD
:1007900085BF80E48ABF81E589BF80E888B910BE43
:1007A00017B885E886B9A5DC8093C302B5DC8093D1
:1007B000A700B9DC8093BB02C2DC8093B7028091B2
:1007C000C30289DF8093AC0188E19EE00FB6F89404
:1007D000A89581BD0FBE91BD7894A2DD6091AC015A
:1007E0008091C3029CDE61DD8FEF93DD8DDD8A3A5F
:1007F00009F4B6C01092B5028091B502882309F0C1
:10080000A89595DE8091BD02882309F492C080915D
:10081000BE02882309F48DC01092BD028091A2000F
:100820008F5F83708093A2009091BB02981708F0AD
:1008300080C09091C1028091A100981313C0809153
:10084000BF029091C002892B69F48091AD01909113
:10085000AE01892B39F48091B3029091B402892BB7
:1008600009F467C08091BF029091C00280389F4F09
:100870000CF4B4C08091BF029091C0028038910501
:100880000CF0AEC08091BF029091C0022091BF02D7
:100890003091C002281B310987FD33953093C00287
:1008A0002093BF022091AD013091AE0160E8203865
:1008B0003F4F64F02091AD013091AE016FE72038D9
:1008C000310524F46091AD017091AE012091AD012C
:1008D0003091AE01261B310967FD33953093AE018F
:1008E0002093AD012091B3023091B40248EF283F2C
:1008F0003F4F64F02091B3023091B40247E02830BA
:10090000310524F44091B3025091B4022091B30216
:100910003091B402241B310947FD33953093B40262
:100920002093B3029091C1029093A1002091C10243
:100930003EDE8091BD0281115FCF8091B6028111B0
:100940005BCF8091B802811157CF85B78F7885BF73
:1009500085B7806885BF889585B78F7785BF4CCF71
:10096000D3DC811147CF82EFD4DCCEDC8D7FA9F4BC
:100970001092A0001092C202A9988FE784BD87E070
:1009800085BD88EEC6DC83E0C4DC83EFC2DC8091E9
:10099000B702BFDC84EFBDDC2FCF83EFBADC88EC7D
:1009A000B8DC83EFB6DC84E6B4DC83EFB2DC80E550
:1009B000B0DC82EFAEDCA8DC9DEF980F923050F4F3
:1009C0001092A0009091A700911101C080E0809347
:1009D000C202D2CF91E09093A000F4CF80E856CF2E
:1009E0008FE754CF8927082E029480258C5F8B7F58
:1009F0008A5F83FD8395817099270895F894FFCFCE
:100A00000402034D5A40000000080124252D231044
:100A10001010113C3C2D2F3533253C302E30102644
:100A200010213C252D23003323322F2C2C292E2757
:100A30000033253229212C002D2F3533252115098E
:00000001FF
