:1000000012C062C193C02AC05DC228C0CAC126C046
:1000100025C0A4C223C022C021C020C01FC01EC052
:100020001DC01CC01BC011241FBECFE5D4E0DEBF25
:10003000CDBF10E0A0E6B0E0E4EFF9E002C005902B
:100040000D92AE3AB107D9F722E0AEEAB0E001C0B6
:100050001D92A03DB207E1F7DCD3CAC4D1CF989B73
:1000600086B3989B02C0B19B0AC0A09AA89886B399
:100070009EEF94BBA89A81FF04C080E0089583E0BE
:10008000089582E0089586B382FB882780F991E085
:1000900089270895B09B80B3B09B06C080B380953C
:1000A000881F8827881F089580E00895869B80B365
:1000B00080B380E008959091C602E091C001F0E025
:1000C000EE53FE4F80838091C6028F5F8093C602FD
:1000D0008091C0018F5F8093C0010895F894809152
:1000E000C602882391F0E091C101F0E0EE53FE4F8B
:1000F00080819091C60291509093C6029091C10167
:100100009F5F9093C1017894089580E0FCCFA82F61
:10011000A295AF70B0E0A05ABF4F8F70E82FF0E00B
:10012000E05AFF4F9C918081892708951F920F927A
:100130000FB60F9211242F933F934F935F936F93BA
:100140007F938F939F93AF93BF93EF93FF93809190
:10015000C502882329F18091C5028230E9F580919A
:10016000B9008230A9F0833079F0813051F180916B
:10017000C80280FF07C0BF988091C802869580930F
:10018000C80209C0BF9AF8CF8091CA02882311F033
:10019000BF9801C0BF9A8091B90081508093B90087
:1001A000FF91EF91BF91AF919F918F917F916F914F
:1001B0005F914F913F912F910F900FBE0F901F9025
:1001C0001895B79B03C01092C50202C08093C50268
:1001D0008CE08093B900DFCF8091B9008230D1F0FC
:1001E0008B3041F0813059F4B79BEDCF8091C8023C
:1001F00062DFEECFB79BCFCF1092C502CCCF8091FC
:10020000C80286958093C802B79BC5CF8091C8026B
:100210008068B5CF8091C8027ADF96B3991F99277D
:10022000991F9813E9CFB7CF8B98BF981092C00150
:100230001092C1011092C60281E08093C5028BE04A
:100240008093B90080E88ABF8BB780688BBF85B781
:100250008C7F826085BF0895CF93C0E8CABF9BB7EB
:100260009F779BBF93988B9AE7ECF0E03197F1F77B
:1002700000C00000C798BF9A8B981092C6021092D7
:10028000C0011092C10192E09093C5029BE090934F
:10029000B9008093C8023BDF8093CA02CABF8BB704
:1002A00080688BBF85B78C7F826085BFCF910895B2
:1002B0008091C6028823E1F311CFCEDFF9DF8A3FB8
:1002C00011F01092C50208951F920F920FB60F926F
:1002D00011248F9380B382FB882780F98093BB0120
:1002E00081E08093BD018F910F900FBE0F901F9002
:1002F00018951092BC011092C2021092C70210927F
:10030000C9021092B800AD989198909880B382FB82
:10031000882780F98093BB018091BB01882319F065
:1003200081E08093BD0108958091AF00813029F470
:1003300083B382FB882780F908958091AF008230D3
:1003400021F483B38295817008958091AF0083304A
:1003500029F483B383FB882780F9089581E0089509
:100360009091C702F894E091BC01F0E0E554FF4F92
:1003700080838091C70291E0980F9093C70281110A
:1003800009C08091B800811105C01DBC1CBC8EB590
:1003900081608EBD78948091BC018F5F8093BC0199
:1003A00008951F920F920FB60F9211242F933F932F
:1003B0004F935F936F937F938F939F93AF93BF936D
:1003C000EF93FF93E091C902E03108F06AC0F0E0DA
:1003D000E551FE4F09940FC055C02AC053C028C034
:1003E00051C026C04FC024C04DC022C04BC020C049
:1003F00049C01EC049C098DF8823D1F081E08093B6
:10040000B800E091C202F0E0E554FF4F8081809394
:10041000B7008091C2028F5F8093C2028091C702B1
:100420008F5F8093C7028091C9028F5F8093C9025A
:10043000AD988091C9022091B70030E090E0880F1C
:10044000991F019702C0359527958A95E2F720FFFD
:1004500017C0919A8091C9028F5F8093C902FF9162
:10046000EF91BF91AF919F918F917F916F915F912C
:100470004F913F912F910F900FBE0F901F901895A5
:100480009198E8CFAD9AE6CFAD9A1092C9028091CB
:10049000C7028111E4CF8EB58E7F8EBD1092B80059
:1004A000DECF1092C902DBCF94E0699FB001112426
:1004B0006C708370862B54CFA9988FE784BD87E03A
:1004C00085BD08951F920F920FB60F92112415BC8F
:1004D000A99A0F900FBE0F901F9018958091C60299
:1004E00090E02091CF02211136C023E030E0821746
:1004F00093070CF40895F2DD87708093CE02EEDD51
:100500002091CC023091CD02280F311D87FD3A9504
:100510003093CD022093CC02E1DD2091BE013091D9
:10052000BF01281B310987FD33953093BF0120930C
:10053000BE018091CF02882389F2D0DD2091C302D1
:100540003091C402280F311D87FD3A953093C402C3
:100550002093C302C3CF24E030E0C9CF1F920F9293
:100560000FB60F9211248F939F938FE982BF8091D2
:10057000B60091E0980F9093B60081708093CB0203
:100580009F918F910F900FBE0F901F9018958F9293
:100590009F92BF92CF92DF92EF92FF920F931F93A1
:1005A000CF93DF93C82ED62EE42EB22E8091BD01BC
:1005B0008823D1F01092BD018FE59DE60197F1F7F8
:1005C00000C000008091AE00813009F052C050E7B9
:1005D000852E50E0952EF40181914F01C1DEFDEA98
:1005E0008F16F0E09F06B9F7B2FAFF24F0F82C2D31
:1005F0000C2C000C330B96E0359527959A95E1F776
:10060000237020648D2D82958C70282B0B2D01700A
:1006100010E035E0000F111F3A95E1F7202BB1FAF9
:10062000BB24B0F8CB2DE0E0DE2FCE0144E0880FF4
:10063000991F4A95E1F7822B93DE8C2D8F7390DE04
:100640008D2D8F738DDE8091AE00813001F5F29497
:1006500080EFF8228E2D8F708F29DF91CF911F911F
:100660000F91FF90EF90DF90CF90BF909F908F9071
:1006700077CE8DE475DE2FEB89E891E02150804044
:100680009040E1F700C0000083E36ADEADCFF110D7
:1006900004C08091B500882339F08F2D8295880F92
:1006A000807E5EDEF092B500DF91CF911F910F91B9
:1006B000FF90EF90DF90CF90BF909F908F90089524
:1006C0001092CB028091BB01882309F485C09091E0
:1006D000CE028091B400981313C08091CC02909107
:1006E000CD02892B69F48091BE019091BF01892BC5
:1006F00039F48091C3029091C402892B09F46CC033
:100700008091CC029091CD0280389F4F0CF460C054
:100710008091CC029091CD02803891050CF05AC0A6
:100720008091CC029091CD022091CC023091CD02EB
:10073000281B310987FD33953093CD022093CC02DD
:100740002091BE013091BF0160E820383F4F64F036
:100750002091BE013091BF016FE72038310524F4AC
:100760006091BE017091BF012091BE013091BF0127
:10077000261B310967FD33953093BF012093BE01DD
:100780002091C3023091C40248EF283F3F4F64F0EC
:100790002091C3023091C40247E02830310524F48F
:1007A0004091C3025091C4022091C3023091C4020F
:1007B000241B310947FD33953093C4022093C302B3
:1007C0009091CE029093B4002091CE02E0DE74CEE0
:1007D00080E8AACF8FE7A8CF089597B1907F8F7058
:1007E000982B97B9369A3699FECF84B195B1089572
:1007F000CF93C82FAB9A83E0F0DFAB988130924063
:1008000028F0CD7F82E019F481E001C083E0CF9130
:10081000089590E080E0E4D08093BA008091BA001F
:10082000833018F081E08093BA00B898C09AB998E4
:10083000C19ABA98C29ABB9AC39ABC98C49ABD9AF4
:10084000C59ABE9AC69ABF98C798A098A89AA19A26
:10085000A99AA298AA98A398AB98A498AC98A59A9C
:10086000AD98A698AE9A889A9098899A91988A9805
:10087000929A8B9893988C9A949A8D98959A8E9830
:10088000969A8F98979A85E083BF8FE982BF1FBCA5
:1008900088E08EBD8FE090E09BBD8ABD12BC87E0F2
:1008A00085BD8FE784BD13BC8BB780648BBF84E0AC
:1008B00085BF80E48ABF81E589BF80E888B910BE22
:1008C00017B885E886B988E19EE00FB6F894A89538
:1008D00081BD0FBE91BD7894C2DB8093B300D3DBA2
:1008E0008093B200D7DB8093B100E0DB8093B0004F
:1008F0008091B3007DDF8093AF00FBDC6091AF009F
:100900008091B300D1DD90DC8FEFD7DCD1DC8A3A67
:1009100089F11092C502D0DDCFE98091CB0281111F
:10092000CFDEDCDD8091CB02882311F0C2BFC8DEB0
:100930008091AE00811118C08091CE028370833007
:1009400099F48091C3029091C40297FF3AC08091BC
:10095000BA00882329F08091BA0081508093BA00B0
:100960001092C4021092C3028091C5028823A9F29A
:10097000A895D3CF9DDC8111CCCF8091B200882384
:10098000A9F083EF9ADC88EC98DC83EF96DC84E6B0
:1009900094DC83EF92DC80E590DC82EF8EDC88DCF7
:1009A00091E0811101C090E09093CF0288EE85DC48
:1009B00083E083DC83EF81DC88E27FDC84EF7DDC15
:1009C000AACF8091C3029091C4021816190664F64A
:1009D0008091BA00823020F68091BA008F5FBECF3E
:1009E000E199FECF9FBB8EBBE09A99278DB3089506
:0409F000F894FFCFA9
:1009F40000010100010000010100000100010100EB
:100A04004D5A40000000080124252D231010101118
:100A14003C3C2D2F3533253C302E30102610213C04
:100A2400252D23003323322F2C2C292E2700332568
:0E0A34003229212C002D2F35332521150900E4
:00000001FF
