:1000000012C061C192C02AC087C228C0D6C126C012
:1000100025C0CEC223C022C021C020C01FC01EC028
:100020001DC01CC01BC011241FBECFE5D4E0DEBF25
:10003000CDBF10E0A0E6B0E0E2E4FAE002C0059037
:100040000D92AE3AB107D9F721E0AEEAB0E001C0B7
:100050001D92A23EB207E1F77DD3F1C4D1CF989BA8
:1000600086B3989B02C0B19B09C0A09AA89886B39A
:10007000A098A89A81FF04C080E0089583E00895C5
:1000800082E0089586B382FB882780F991E0892772
:100090000895B09B80B3B09B06C080B38095881F45
:1000A0008827881F089580E00895869B80B380B3D9
:1000B00080E008959091D701E091D100F0E0ED52F9
:1000C000FF4F80838091D7018F5F8093D70180910C
:1000D000D1008F5F8093D1000895F8948091D7016B
:1000E000882391F0E091D200F0E0ED52FF4F808143
:1000F0009091D70191509093D7019091D2009F5F3A
:100100009093D2007894089580E0FCCFA82FA29518
:10011000AF70B0E0A05ABF4F8F70E82FF0E0E05A08
:10012000FF4F9C918081892708951F920F920FB6EF
:100130000F9211242F933F934F935F936F937F936D
:100140008F939F93AF93BF93EF93FF938091D601CB
:10015000882329F18091D6018230E9F58091BB0096
:100160008230A9F0833079F0813051F18091DA0149
:1001700080FF07C0BF988091DA0186958093DA01ED
:1001800009C0BF9AF8CF8091DB01882311F0BF9896
:1001900001C0BF9A8091BB0081508093BB00FF914A
:1001A000EF91BF91AF919F918F917F916F915F91EF
:1001B0004F913F912F910F900FBE0F901F90189568
:1001C000B79B03C01092D60102C08093D6018CE089
:1001D0008093BB00DFCF8091BB008230D1F08B30A9
:1001E00041F0813059F4B79BEDCF8091DA0162DFA5
:1001F000EECFB79BCFCF1092D601CCCF8091DA0152
:1002000086958093DA01B79BC5CF8091DA0180682B
:10021000B5CF8091DA017ADF96B3991F9927991F9C
:100220009813E9CFB7CF8B98BF981092D100109256
:10023000D2001092D70181E08093D6018BE08093A9
:10024000BB0080E88ABF8BB780688BBF85B78C7F87
:10025000826085BF0895CF93C0E8CABF9BB79F77E0
:100260009BBF93988B9AE7ECF0E03197F1F700C0D1
:100270000000C798BF9A8B981092D7011092D100B6
:100280001092D20092E09093D6019BE09093BB0035
:100290008093DA013BDF8093DB01CABF8BB78068B4
:1002A0008BBF85B78C7F826085BFCF910895809189
:1002B000D7018823E1F311CFCEDFF9DF8A3F11F0B8
:1002C0001092D60108951F920F920FB60F9211242B
:1002D0008F9380B382FB882780F98093DD0181E0D2
:1002E0008093D9018F910F900FBE0F901F9018959A
:1002F0001092CD001092D3011092D8011092B90043
:100300001092BA00AD989198909880B382FB88279C
:1003100080F98093DD018091DD01882319F081E06F
:100320008093D90108959091AF00913031F483B357
:1003300082958F708927817008958091AF008230F7
:1003400039F483B382FB882780F991E089270895E7
:100350008091AF00833029F483B383FB882780F931
:10036000F4CF81E008959091D8019031E1F3F894B1
:10037000E091CD00F0E0E354FF4F80838091D801FD
:1003800091E0980F9093D80181110CC08091BA0030
:10039000811108C08EB5887F8EBD1DBC1CBC8EB57A
:1003A00085608EBD78948091CD008F5F8093CD0065
:1003B000803111F41092CD0008951F920F920FB664
:1003C0000F9211242F933F934F935F936F937F93DB
:1003D0008F939F93AF93BF93EF93FF93E091B900F7
:1003E000E13108F088C0F0E0E950FE4F099410C0F8
:1003F00067C038C065C036C063C034C061C032C099
:100400005FC030C05DC02EC05BC02CC059C05AC098
:100410008091D00081113EC081E08093D000809314
:10042000BA00E091D301F0E0E354FF4F8081809364
:10043000B80087E08093B7008091D3018F5F8093ED
:10044000D301803111F41092D3018091D8018150F1
:100450008093D8018EB5887F8EBD1DBC1CBC8EB527
:1004600081608EBDAD988091B80090E02091B7007A
:100470003FEF320F3093B70002C0959587952A95CC
:10048000E2F780FF1BC0919A8091B9008F5F809343
:10049000B90003C048DF8111BFCFFF91EF91BF9139
:1004A000AF919F918F917F916F915F914F913F910C
:1004B0002F910F900FBE0F901F9018959198E4CF39
:1004C000AD9AE2CF8091D80181110CC08EB5887FA2
:1004D0008EBD1DBC1CBC1092BA00AD9891981092B4
:1004E000B900DBCF8EB5887F8EBD1DBC1CBC8EB520
:1004F00085608EBDF2CF1092D601CFCF94E0699F78
:10050000B00111246C708370862B2DCFA9988FE7D2
:1005100084BD87E085BD08951F920F920FB60F929C
:10052000112415BCA99A0F900FBE0F901F9018951B
:100530008091D70190E02091E101211136C023E0A4
:1005400030E0821793070CF40895C7DD877080931D
:10055000E001C3DD2091DE013091DF01280F311D64
:1005600087FD3A953093DF012093DE01B6DD2091BF
:10057000CE003091CF00281B310987FD3395309391
:10058000CF002093CE008091E101882389F2A5DD80
:100590002091D4013091D501280F311D87FD3A9566
:1005A0003093D5012093D401C3CF24E030E0C9CFEC
:1005B0001F920F920FB60F9211248F939F938FE982
:1005C00082BF8091B60091E0980F9093B600817041
:1005D0008093DC019F918F910F900FBE0F901F9021
:1005E00018958F929F92BF92CF92DF92EF92FF92D7
:1005F0000F931F93CF93DF93C82ED62EE42EB22EE7
:100600008091D9018823D1F01092D9018FE59DE620
:100610000197F1F700C000008091AE00813009F031
:1006200052C050E7852E50E0952EF40181914F0184
:100630009ADEFDEA8F16F0E09F06B9F7B2FAFF24C2
:10064000F0F82C2D0C2C000C330B96E035952795EB
:100650009A95E1F7237020648D2D82958C70282B5C
:100660000B2D017010E035E0000F111F3A95E1F7F6
:10067000202BB1FABB24B0F8CB2DE0E0DE2FCE0169
:1006800044E0880F991F4A95E1F7822B6CDE8C2D90
:100690008F7369DE8D2D8F7366DE8091AE008130A1
:1006A00001F5F29480EFF8228E2D8F708F29DF9163
:1006B000CF911F910F91FF90EF90DF90CF90BF905F
:1006C0009F908F9050CE8DE44EDE2FEB89E891E025
:1006D000215080409040E1F700C0000083E343DEFA
:1006E000ADCFF11004C08091B500882339F08F2D73
:1006F0008295880F807E37DEF092B500DF91CF9132
:100700001F910F91FF90EF90DF90CF90BF909F903F
:100710008F90089597B1907F8F70982B97B9369AE4
:100720003699FECF84B195B10895CF93C82FAB9A77
:1007300022E42A95F1F700C083E0ECDFAB9881302A
:10074000924028F0CD7F82E019F481E001C083E07F
:10075000CF91089590E080E06AD18093BC008091B1
:10076000BC00833018F081E08093BC00B898C09A38
:10077000B998C19ABA98C29ABB9AC39ABC98C49ABB
:10078000BD9AC59ABE9AC69ABF98C798A098A89ACB
:10079000A19AA99AA298AA98A398AB98A498AC9861
:1007A000A59AAD98A698AE9A889A909A899A9198A7
:1007B0008A98929A8B9893988C9A949A8D98959AF5
:1007C0008E98969A8F98979A85E083BF8FE982BF1B
:1007D0001FBC88E08EBD8FE090E09BBD8ABD12BC3F
:1007E00087E085BD8FE784BD13BC8BB780648BBF6A
:1007F00084E085BF80E48ABF81E589BF80E888B94D
:1008000010BE17B885E886B988E19EE00FB6F89467
:10081000A89581BD0FBE91BD1092D00078941FDCC9
:100820008093B3002FDC8093B20033DC8093B1005F
:100830003CDC8093B0008091B30077DF8093AF0001
:1008400057DD6091AF008091B30058DEECDC8FEF94
:1008500033DD2DDD8A3A09F4B4C01092D60156DE9C
:1008600067DE8091DC01882309F488C01092DC01E6
:100870008091DD01882309F481C09091E00180918D
:10088000B400981313C08091DE019091DF01892B91
:1008900069F48091CE009091CF00892B39F480913A
:1008A000D4019091D501892B09F468C08091DE01B3
:1008B0009091DF0180389F4F0CF4A6C08091DE013B
:1008C0009091DF01803891050CF0A0C08091DE018D
:1008D0009091DF012091DE013091DF01281B310969
:1008E00087FD33953093DF012093DE012091CE0008
:1008F0003091CF0060E820383F4F64F02091CE0067
:100900003091CF006FE72038310524F46091CE009C
:100910007091CF002091CE003091CF00261B31097D
:1009200067FD33953093CF002093CE002091D40102
:100930003091D50148EF283F3F4F64F02091D4011A
:100940003091D50147E02830310524F44091D4019D
:100950005091D5012091D4013091D501241B31094A
:1009600047FD33953093D5012093D4019091E00158
:100970009093B4002091E00134DEC8DD8091AE0098
:10098000811118C08091E0018370833099F48091C7
:10099000D4019091D50197FF3BC08091BC00882382
:1009A00029F08091BC0081508093BC001092D50149
:1009B0001092D4018091D601882309F451CFA895D3
:1009C0004FCF75DC811149CF8091B200882389F027
:1009D00083EF72DC88EC70DC83EF6EDC84E66CDC29
:1009E00083EF6ADC80E568DC82EF66DC60DC8093A4
:1009F000E10188EE61DC83E05FDC83EF5DDC88E2AF
:100A00005BDC84EF59DC2BCF80E864CF8FE762CFCB
:100A10008091D4019091D501181619065CF6809149
:100A2000BC00823018F68091BC008F5FBDCFE19989
:100A3000FECF9FBB8EBBE09A99278DB30895F894A3
:020A4000FFCFE6
:100A4200000101000100000101000001000101009C
:100A52004D5A40000000080124252D2310101011CA
:100A62003C3C2D2F3533253C302E30102610213CB6
:100A7200252D23003323322F2C2C292E270033251A
:0E0A82003229212C002D2F3533252115090096
:00000001FF
