:1000000012C093C02BC02AC0F3C128C027C026C08D
:1000100025C01EC223C022C021C020C01FC01EC0D8
:100020001DC01CC01BC011241FBECFE5D4E0DEBF25
:10003000CDBF10E0A0E6B0E0EAE7F6E002C0059030
:100040000D92AE3AB107D9F721E0AEEAB0E001C0B7
:100050001D92A23CB207E1F758D20DC3D1CF989BB5
:1000600086B3989B02C0B19B09C0A09AA89886B39A
:100070009EEF94BB81FF04C080E0089583E0089563
:1000800082E0089586B382FB882780F991E0892772
:100090000895B09B80B3B09B06C080B38095881F45
:1000A0008827881F089580E00895869B80B380B3D9
:1000B00080E008959091BB01E091B600F0E0E85433
:1000C000FF4F80838091BB018F5F8093BB01809144
:1000D000B6008F5F8093B6000895F8948091BB01BD
:1000E000882391F0E091B700F0E0E854FF4F808161
:1000F0009091BB0191509093BB019091B7009F5F8D
:100100009093B7007894089580E0FCCFA82FA29533
:10011000AF70B0E0A256BF4F8F70E82FF0E0E2560C
:10012000FF4F9C918081892708951F920F920FB6EF
:100130000F9211242F933F934F935F936F937F936D
:100140008F939F93AF93BF93EF93FF938091BA01E7
:10015000882329F18091BA018230E9F58091B100BC
:100160008230A9F0833079F0813051F18091BC0167
:1001700080FF07C088988091BC0186958093BC0160
:1001800009C0889AF8CF8091BD01882311F0889822
:1001900001C0889A8091B10081508093B100FF9195
:1001A000EF91BF91AF919F918F917F916F915F91EF
:1001B0004F913F912F910F900FBE0F901F90189568
:1001C000809B03C01092BA0102C08093BA018CE0F8
:1001D0008093B100DFCF8091B1008230D1F08B30BD
:1001E00041F0813059F4809BEDCF8091BC0162DFFA
:1001F000EECF809BCFCF1092BA01CCCF8091BC01C3
:1002000086958093BC01809BC5CF8091BC0180689E
:10021000B5CF8091BC017ADF90B391708913EBCF99
:10022000B9CFB89888981092B6001092B700109283
:10023000BB0181E08093BA018BE08093B10080E440
:100240008ABF8BB780648BBF85B78C7F826085BF88
:100250000895CF93C0E4CABF9BB79F7B9BBFC09854
:10026000B89AE7ECF0E03197F1F700C00000909801
:10027000889AB8981092BB011092B6001092B700FD
:1002800092E09093BA019BE09093B1008093BC01FF
:100290003DDF8093BD01CABF8BB780648BBF85B73C
:1002A0008C7F826085BFCF9108958091BB018823A8
:1002B000E1F313CFCEDFF9DF8A3F11F01092BA01DC
:1002C0000895889AA69AA59A8998AD9AAE9890981A
:1002D0000895282F98E080E027FF12C0909A220FFF
:1002E0003DE03A95F1F70000AE9A880F8199816060
:1002F0003DE03A95F1F70000AE98915069F7089506
:100300009098EDCF0F931F93CF93DF93182FD62F95
:10031000C42F022FAD988AEADCDF802FDADF812F2D
:10032000D8DF8D2FD6DF8C2FD4DFAD9ADF91CF9120
:100330001F910F910895A99A14BC87E085BD089577
:100340001092BE012091C1016091BF017091C00166
:100350004091B4005091B500E091B801F091B9011D
:100360008091AF00281309C06115710531F4411562
:10037000510539F4309729F4089560388FEF7807E4
:10038000ACF1862F603871050CF08FE7681B71099E
:1003900087FD73957093C0016093BF0160E840389A
:1003A0009FEF59072CF0642F403851050CF06FE790
:1003B000461B510967FD53955093B5004093B40017
:1003C00048EFE83F9FEFF9072CF04E2FE830F1059A
:1003D0000CF047E0E41BF10947FDF395F093B901F8
:1003E000E093B8012093AF008DDFA5CF80E8CECF9A
:1003F0001F920F920FB60F92112415BCA9980F905F
:100400000FBE0F901F9018958091BB01833008F4A8
:10041000089563DE87708093C1015FDE2091BF0184
:100420003091C001280F311D87FD3A953093C001EE
:100430002093BF0152DE2091B4003091B500281BFB
:10044000310987FD33953093B5002093B400DCCF9C
:100450001F920F920FB60F9211242F938F939F9399
:100460008DE382BF8091B000982F91709093BE0170
:100470008F5F8093B00083B3982F97702091AE0068
:10048000211104C080FD14C010926000973019F44F
:1004900082E38093AE008091AE0081508093AE00E5
:1004A0009F918F912F910F900FBE0F901F901895D5
:1004B00081FD04C081E080936000E8CF82FDF0CF31
:1004C00082E0F9CF1FCF80E487B986E886B9089526
:1004D00097B1907F8F70982B97B9369A3699FECF47
:1004E00084B195B10895CF93DF93EC0183E0F0DF01
:1004F0009983888384E0ECDF9B838A8385E0E8DF4F
:100500009D838C83DF91CF910895CF93DF9300D0AB
:1005100000D000D0CDB7DEB78E010F5F1F4F86E051
:10052000F80111928A95E9F790E080E08BD08093F2
:10053000B200833018F081E08093B20080E287BB84
:1005400094E098BB14BA87E085BB22E221BB12BAC3
:1005500025E023BF2DE322BF12BC85BD14BC13BC14
:100560008BB780688BBF95BF90E89ABF19BE89B7DB
:10057000816489BF98B910BE88E19EE00FB6F894F7
:10058000A89581BD0FBE91BD78944BDE8FEF92DEB2
:100590008CDE8A3A09F440C01092BA0192DECBDEBA
:1005A0008DE3F82EEE24EA94C8019DDF8091BE0110
:1005B0008111C6DE29DF8091BE01882311F0F2BED1
:1005C000BFDE609160006F3F39F06093B20090E051
:1005D00080E040D0E09260008091B300811116C0AD
:1005E0008091C1018370833089F48091B80190912A
:1005F000B90197FF1FC08091B200882319F0815084
:100600008093B2001092B9011092B8018091BA01A2
:10061000882351F2A895C8CF48DE8111BDCF88EE5E
:1006200049DE83E047DE83EF45DE88E243DE84EF88
:1006300041DEB4CF892B51F38091B200823010F7A4
:100640008F5FDECFE199FECF9FBB8EBBE09A9927EB
:100650008DB30895262FE199FECF9FBB8EBBE09A04
:1006600001970DB2021631F02DBB0FB6F894E29A45
:0A067000E19A0FBE0895F894FFCF41
:10067A00FF4D5A40000000080124252D23101010B8
:10068A00113C3C2D2F3533253C302E3010261021BD
:10069A003C252D23003323322F2C2C292E270033DF
:1006AA00253229212C002D2F35332521150900014A
:0E06BA0001000100000101000001000101002B
:00000001FF
