:1000000012C037C04FC01FC08DC11DC0EAC01BC089
:100010001AC0D6C018C017C016C015C014C013C06F
:1000200012C011C010C011241FBECFE5D4E0DEBF46
:10003000CDBF21E0A0E6B0E001C01D92AD37B20710
:10004000E1F72BD353C5DCCF85B78F7885BF85B754
:10005000806885BF889585B78F7785BF089580E8CC
:100060008ABF8BB780688BBF85B7837F886085BF69
:1000700008951F920F920FB60F9211248F9380B3A1
:10008000847080937A0180917A01882329F081E03D
:1000900080937501809379018F910F900FBE0F901F
:1000A0001F9018951F920F920FB60F9211242F9345
:1000B0003F938F939F93EF93FF93809171018823D8
:1000C00029F1809171018230B9F580916A00823006
:1000D000A9F0833079F0813021F18091760180FFA1
:1000E00007C0BF988091760186958093760109C0FC
:1000F000BF9AF8CF80917801882311F0BF9801C092
:10010000BF9A80916A00815080936A00FF91EF91BD
:100110009F918F913F912F910F900FBE0F901F9045
:10012000189586B38095881F8827881F8093710152
:100130008CE080936A00E5CF80916A008230F9F00C
:100140008B3069F0813081F4B79B06C080917601D5
:100150009091720197FF1EC010927101E9CFB79B79
:10016000D0CF10927101CDCF80917601869580938A
:100170007601B79BC6CF809176018068B6CF80911B
:1001800076019DD49C0196B390789217130609F0DE
:10019000B8CFE7CFE091EE00F0E0E051FF4F808371
:1001A000809172018F5F809372018091EE008F5F6A
:1001B0008093EE00803809F0BBCF1092EE00B8CFEC
:1001C0001F920F920FB60F9211248F938FE982BF67
:1001D00081E0809379018F910F900FBE0F901F9057
:1001E00018951F920F920FB60F9211242F938F9391
:1001F0009F93EF93FF9383B390E02091EC0002C0B4
:10020000959587952A95E2F780FF0DC08091ED00C6
:10021000882349F08EB5887F8EBD1DBC1CBC8EB571
:1002200082608EBD09C08091740181110FC08EB5AE
:10023000887F8EBD1DBC1CBCFF91EF919F918F915B
:100240002F910F900FBE0F901F90189581E0809313
:10025000ED00E0917001F0E0E559FF4F8081909151
:1002600070019F5F90937001903811F410927001AB
:1002700090917401915090937401AD98000086FFA5
:1002800043C0919A0000AD9A0000AD98000085FF30
:100290003DC0919A0000AD9A0000AD98000084FF27
:1002A00037C0919A0000AD9A0000AD98000083FF1E
:1002B00031C0919A0000AD9A0000AD98000082FF15
:1002C0002BC0919A0000AD9A0000AD98000081FF0C
:1002D00025C0919A0000AD9A0000AD98000080FF03
:1002E0001FC0919A0000AD9A0000AD98919880913E
:1002F0007401882309F49BCF8EB5887F8EBD1DBC09
:100300001CBC8EB581608DCF9198BCCF9198C2CF27
:100310009198C8CF9198CECF9198D4CF9198DACFB9
:100320009198E0CF1F920F920FB60F92112415BC37
:10033000A99A0F900FBE0F901F901895989902C020
:10034000B19911C0989B02C0B19B0FC0A09AA89808
:1003500082E08A95F1F700C086B3A098A89A81FF41
:1003600006C080E0089581E0089583E0089582E06A
:10037000089586B382FB882780F991E08927089544
:10038000B09902C0879908C0B09B08C080B380951F
:10039000881F8827881F089582E0089580E00895C7
:1003A000869902C0859906C0869B06C0859904C0BF
:1003B00088E2089584E1089580E508952FB7F894C0
:1003C000809172018823B1F0E091EF00F0E0E051FC
:1003D000FF4F8081909172019150909372019091A2
:1003E000EF009F5F9093EF00903811F41092EF00B0
:1003F0002FBF089580E0FCCF1092EE001092EF0026
:100400001092720181E0809371018BE080936A0009
:1004100026CE90E89ABF9BB79F779BBF93988B9A05
:10042000E7ECF0E03197F1F700C00000C798BF9A01
:100430008B98109272011092EE001092EF0092E0F1
:10044000909371019BE090936A008093760137D37B
:10045000F1E08F278093780102CE809172018111A3
:10046000ADCFF2DDFACFD5DFF8DF8A3F11F0109281
:1004700071010895CF93C82F80917401803821F1C4
:100480009FB7F894E091EB00F0E0E559FF4FC0838F
:100490008091740121E0280F20937401811108C01C
:1004A0008EB5887F8EBD1DBC1CBC8EB581608EBD97
:1004B0008091EB008F5F8093EB00803811F41092F5
:1004C000EB009FBFCF910895BFDDD6CF837090E042
:1004D000633009F494E0892BCDCFCF93CFB7F89454
:1004E0001092EB0010927001109274018091ED0057
:1004F00081110BC0919A82E08A95F1F700C0919822
:100500006091EC0080917C01E1DF82E08A95F1F757
:1005100000C09098CFBF8091ED00882311F0CF915B
:10052000089592DDF8CFEF92FF920F931F93CF9330
:10053000DF93E82EF62E142F022F282F880F330B6F
:1005400096E0359527959A95E1F723702064862FDC
:1005500082958C70282BA02FA170B0E035E0AA0FF7
:10056000BB1F3A95E1F72A2B01FBEE27E0F9F0E0FB
:10057000CF0144E0880F991F4A95E1F7822B7ADF7B
:100580008E2D8F7377DF8F2D8F7374DF80917B01BA
:10059000882379F002FB002700F9C02F80E0D82FD4
:1005A00084E0CC0FDD1F8A95E1F7812F8F708C2BB3
:1005B00061DFA9988FE784BD87E085BDDF91CF918A
:1005C0001F910F91FF90EF9008958F929F92AF929D
:1005D000BF92CF92DF92EF92FF921F93CF93DF9360
:1005E000182FA39A82E08A95F1F700C0A39882E0C1
:1005F0008A95F1F700C0ECE050E040E0C12CD12C2E
:10060000760187B1807F836087B9369A3699FECFAD
:1006100084B195B1A4B1B5B14A0F5B1F9D015AD207
:10062000C60ED71EE81EF91EE15059F7CA016CE04C
:1006300070E00ED2EB019B01DB014CD24B015C015F
:10064000C701B6012CE030E040E050E015D2821640
:100650009306A406B506E0F4C93ED34048F0281935
:1006600039094A095B09223331054105510598F0E2
:100670001D7F82E009F484E0DF91CF911F91FF900C
:10068000EF90DF90CF90BF90AF909F908F900895A4
:10069000C93ED34068F383E0EFCFB898C09AB998C9
:1006A000C19ABA98C29ABB9AC39ABC98C49ABD9A86
:1006B000C59ABE9AC69ABF98C79AA098A89AA19AB6
:1006C000A99AA298AA98A398AB98A498AC98A59A2E
:1006D000AD98A698AE9A889A909A899A91988A9895
:1006E000929A8B98939A8C9A949A8D98959A8E98C0
:1006F000969A8F98979A85E083BF8FE982BF1FBC37
:1007000088E08EBD8FE490E09BBD8ABD12BC87E07F
:1007100085BD8FE784BD13BC80E48ABF8BBFC1E079
:10072000C5BF91E599BF90E898B910BE87B985E833
:1007300086B904DE80937C011CDE8093690020DE94
:10074000809377012DDE8093730180917C013DDFE2
:100750008093EC0084B714BE823009F49DC008F089
:1007600093C0813009F4A2C088E19EE00FB6F894EE
:10077000A89581BD0FBE91BD7894AFDE3DDE8FEFB1
:1007800072DE6BDE8A3A09F49EC01092710191E02C
:100790009093790180B3847080937A01909375016E
:1007A00080917101882309F0A8958091720190E0F1
:1007B00020917B01222309F4EDC024E030E0821770
:1007C00093070CF0ACC080917901882309F44AC0EA
:1007D00080917A01882309F445C0109279018091B3
:1007E00061008F5F83708093610090917501992300
:1007F00009F4D3C0109275019FB7F8941092670066
:1008000010926600109265001092640010926300CE
:1008100010926200109268008091EB00809370014A
:10082000109274018EB5887F8EBD1DBC1CBC9FBF0D
:100830008FE59DE60197F1F700C0000080917A01F5
:10084000882381F08DE416DE80917B01882351F0AE
:100850008AE510DE80E40EDE80E00CDE80E00ADE59
:1008600080E008DE80917101882361F08091790138
:10087000811196CF80917201811192CF8091740184
:1008800081118ECFE1DB8CCF843081F0883009F08C
:100890006BCFC093ED0068CFA9982FE788E391E074
:1008A000215080409040E1F700C000002FE788E32E
:1008B00091E0215080409040E1F700C00000A99AEB
:1008C0001092ED0051CFC9DD81115FCF8091690099
:1008D000882311F183EFC7DD88ECC5DD83EFC3DD2D
:1008E00084E6C1DD83EFBFDD80E5BDDD82EFBBDDEA
:1008F000B4DD80937B01A9988FE784BD87E085BD37
:1009000088EEB1DD83E0AFDD83EFADDD8091730173
:10091000AADD84EFA8DD3BCF10927B01ECCF4EDD4A
:1009200090917B01992389F197E089238093680056
:1009300045DD2091660030916700280F311D87FD4D
:100940003A95309367002093660038DD209164006B
:1009500030916500281B310987FD33953093650080
:100960002093640080917B01882389F027DD082E85
:10097000000C990B2091620030916300820F931F4D
:10098000909363008093620010CF93E0CECF90E00D
:1009900080E0F0CF23E030E012CF9091770189170B
:1009A00008F460CF20916800609166007091670044
:1009B0004091640050916500E0916200F091630005
:1009C0008091600028130BC06115710541F4411539
:1009D000510519F4309709F445CF862F09C080E8F6
:1009E00060389FEF790724F08FE760387105ACF32A
:1009F000681B710987FD73957093670060936600AB
:100A000060E840389FEF59072CF0642F40385105BB
:100A10000CF06FE7461B510967FD53955093650035
:100A20004093640048EFE83F9FEFF9072CF04E2F0A
:100A3000E830F1050CF047E0E41BF10947FDF395C0
:100A4000F0936300E0936200209360006CDD0ACFB6
:100A5000AA1BBB1B51E107C0AA1FBB1FA617B707E4
:100A600010F0A61BB70B881F991F5A95A9F7809500
:100A70009095BC01CD010895A1E21A2EAA1BBB1BC3
:100A8000FD010DC0AA1FBB1FEE1FFF1FA217B3075A
:100A9000E407F50720F0A21BB30BE40BF50B661F70
:100AA000771F881F991F1A9469F760957095809534
:100AB00090959B01AC01BD01CF0108958927082EB7
:100AC000029480258C5F8B7F8A5F83FD8395817084
:100AD00099270895A29FB001B39FC001A39F01D0A1
:100AE000B29F700D811D1124911D0895F894FFCFC0
:00000001FF
