:1000000012C062C193C02AC04AC228C027C026C0FD
:1000100025C091C223C022C021C020C01FC01EC065
:100020001DC01CC01BC011241FBECFE5D4E0DEBF25
:10003000CDBF10E0A0E6B0E0E2EBF7E002C0059033
:100040000D92AE3AB107D9F722E0AEEAB0E001C0B6
:100050001D92AB3CB207E1F7B5D2A9C3D1CF989BB3
:1000600086B3989B02C0B19B0AC0A09AA89886B399
:100070009EEF94BBA89A81FF04C080E0089583E0BE
:10008000089582E0089586B382FB882780F991E085
:1000900089270895B09B80B3B09B06C080B380953C
:1000A000881F8827881F089580E00895869B80B365
:1000B00080B380E008959091C202E091BC01F0E02D
:1000C000E254FE4F80838091C2028F5F8093C20210
:1000D0008091BC018F5F8093BC010895F89480915A
:1000E000C202882391F0E091BD01F0E0E254FE4F9E
:1000F00080819091C20291509093C2029091BD0173
:100100009F5F9093BD017894089580E0FCCFA82F65
:10011000A295AF70B0E0A256BF4F8F70E82FF0E00D
:10012000E256FF4F9C918081892708951F920F927C
:100130000FB60F9211242F933F934F935F936F93BA
:100140007F938F939F93AF93BF93EF93FF93809190
:10015000C102882329F18091C1028230E9F58091A2
:10016000B6008230A9F0833079F0813051F180916E
:10017000C40280FF07C0BF988091C4028695809317
:10018000C40209C0BF9AF8CF8091C502882311F03C
:10019000BF9801C0BF9A8091B60081508093B6008D
:1001A000FF91EF91BF91AF919F918F917F916F914F
:1001B0005F914F913F912F910F900FBE0F901F9025
:1001C0001895B79B03C01092C10202C08093C10270
:1001D0008CE08093B600DFCF8091B6008230D1F002
:1001E0008B3041F0813059F4B79BEDCF8091C40240
:1001F00062DFEECFB79BCFCF1092C102CCCF809100
:10020000C40286958093C402B79BC5CF8091C40277
:100210008068B5CF8091C4027ADF96B3991F992781
:10022000991F9813E9CFB7CF8B98BF981092BC0154
:100230001092BD011092C20281E08093C1028BE056
:100240008093B60080E88ABF8BB780688BBF85B784
:100250008C7F826085BF0895CF93C0E8CABF9BB7EB
:100260009F779BBF93988B9AE7ECF0E03197F1F77B
:1002700000C00000C798BF9A8B981092C2021092DB
:10028000BC011092BD0192E09093C1029BE090935B
:10029000B6008093C4023BDF8093C502CABF8BB710
:1002A00080688BBF85B78C7F826085BFCF910895B2
:1002B0008091C2028823E1F311CFCEDFF9DF8A3FBC
:1002C00011F01092C10208951F920F920FB60F9273
:1002D00011248F9380B382FB882780F98093AE002E
:1002E00081E0809360008F910F900FBE0F901F9060
:1002F0001895AD989198909880B382FB882780F9E3
:100300008093AE008091AE00882319F081E0809345
:100310006000089598E087FF0FC0919A880F2DE044
:100320002A95F1F70000AD9A2DE02A95F1F700002B
:10033000AD98915081F708959198F0CF94E0699F1E
:10034000B00111246C708370862BE4CF0F931F9340
:10035000CF93DF93182FD62FC42F022F8AEADADF2C
:10036000802FD8DF812FD6DF8D2FD4DF8C2FDF9128
:10037000CF911F910F91CECFA9988FE784BD87E0D1
:1003800085BD08951092C6028091AE00882309F4BD
:1003900085C09091C9028091B400981313C08091D8
:1003A000C7029091C802892B69F48091BA0190919B
:1003B000BB01892B39F48091BF029091C002892B37
:1003C00009F46CC08091C7029091C80280389F4F99
:1003D0000CF460C08091C7029091C80280389105EA
:1003E0000CF05AC08091C7029091C8022091C702B8
:1003F0003091C802281B310987FD33953093C8021C
:100400002093C7022091BA013091BB0160E82038E7
:100410003F4F64F02091BA013091BB016FE7203863
:10042000310524F46091BA017091BB012091BA01A9
:100430003091BB01261B310967FD33953093BB0119
:100440002093BA012091BF023091C00248EF283FAB
:100450003F4F64F02091BF023091C00247E0283046
:10046000310524F44091BF025091C0022091BF0297
:100470003091C002241B310947FD33953093C002EF
:100480002093BF029091C9029093B4002091C902B9
:100490005DDF72CF80E8AACF8FE7A8CF08951F92C3
:1004A0000F920FB60F92112415BCA99A0F900FBE90
:1004B0000F901F9018958091C20290E02091CA027F
:1004C000211136C023E030E0821793070CF4089521
:1004D00005DE87708093C90201DE2091C70230914A
:1004E000C802280F311D87FD3A953093C80220932A
:1004F000C702F4DD2091BA013091BB01281B3109FC
:1005000087FD33953093BB012093BA018091CA02D5
:10051000882389F2E3DD2091BF023091C002280FC9
:10052000311D87FD3A953093C0022093BF02C3CF9F
:1005300024E030E0C9CF1F920F920FB60F92112422
:100540008F939F938FE982BF8091B50091E0980FC0
:100550009093B50081708093C6029F918F910F9008
:100560000FBE0F901F901895F1CE97B1907F8F70AE
:10057000982B97B9369A3699FECF84B195B10895E4
:10058000CF93C82FAC9A84E0F0DFAC9881309240D2
:1005900028F0CD7F82E019F481E001C083E0CF91A3
:1005A000089593B321E030E002C0220F331F8A95F3
:1005B000E2F7892F90E02823392381E0232B09F4E7
:1005C00080E0089590E080E0EAD08093B7008091C9
:1005D000B700833018F081E08093B700B898C09AD4
:1005E000B998C19ABA98C29ABB9AC39ABC98C49A4D
:1005F000BD9AC59ABE9AC69ABF98C798A098A89A5D
:10060000A19AA99AA298AA98A398AB98A498AC98F2
:10061000A59AAD98A698AE9A889A9098899A91983A
:100620008A98929A8B9893988C9A949A8D98959A86
:100630008E98969A8F98979A85E083BF8FE982BFAC
:1006400012BC87E085BD8FE784BD13BC8BB7806487
:100650008BBF84E085BF80E48ABF19BE89B78164FF
:1006600089BF80E888B910BE17B885E886B9789444
:10067000F6DC8093B30007DD8093B2000BDD80933E
:10068000B10014DD8093B0008091B30079DF8093D6
:10069000AF002FDE6091AF008091B3004FDEC4DD6C
:1006A0008FEF0BDE05DE8A3AA1F11092C10264DE03
:1006B000CFE98091C602882309F452C063DEFBDED5
:1006C0008091C602882309F452C0C2BF5BDE8091CC
:1006D000B801811118C08091C9028370833099F4E8
:1006E0008091BF029091C00297FF48C08091B700EF
:1006F000882329F08091B70081508093B700109231
:10070000C0021092BF028091C102882391F2A89585
:10071000D0CFCEDD8111C9CF8091B2008823A9F05E
:1007200083EFCBDD88ECC9DD83EFC7DD84E6C5DD73
:1007300083EFC3DD80E5C1DD82EFBFDDB9DD91E090
:10074000811101C090E09093CA0288EEB6DD83E08B
:10075000B4DD83EFB2DD88E2B0DD84EFAEDDA7CF9C
:100760008091AF001EDF882309F4A8CFA8CF809125
:10077000AF0017DF882309F4A8CFA9CF8091BF026B
:100780009091C002181619060CF0BDCF8091B700E9
:10079000823008F0B4CF8091B7008F5FAECFE1997F
:1007A000FECF9FBB8EBBE09A99278DB30895F89436
:0207B000FFCF79
:1007B200014D5A40000000080124252D231010107D
:1007C200113C3C2D2F3533253C302E301026102184
:1007D2003C252D23003323322F2C2C292E270033A6
:1007E200253229212C002D2F353325211509000111
:0E07F2000100010000010100000100010100F2
:00000001FF
