:1000000012C037C04FC01FC08DC11DC0EAC01BC089
:100010001AC0D6C018C017C016C015C014C013C06F
:1000200012C011C010C011241FBECFE5D4E0DEBF46
:10003000CDBF22E0A0E6B0E001C01D92AB37B20711
:10004000E1F72BD3B0C6DCCF85B78F7885BF85B7F6
:10005000806885BF889585B78F7785BF089580E8CC
:100060008ABF8BB780688BBF85B7837F886085BF69
:1000700008951F920F920FB60F9211248F9380B3A1
:1000800084708093780280917802882329F081E03F
:1000900080937302809377028F910F900FBE0F9021
:1000A0001F9018951F920F920FB60F9211242F9345
:1000B0003F938F939F93EF93FF9380916F028823D9
:1000C00029F180916F028230B9F580916A00823007
:1000D000A9F0833079F0813021F18091740280FFA2
:1000E00007C0BF988091740286958093740209C0FE
:1000F000BF9AF8CF80917602882311F0BF9801C093
:10010000BF9A80916A00815080936A00FF91EF91BD
:100110009F918F913F912F910F900FBE0F901F9045
:10012000189586B38095881F8827881F80936F0253
:100130008CE080936A00E5CF80916A008230F9F00C
:100140008B3069F0813081F4B79B06C080917402D6
:10015000909170029F3FF1F410926F02E9CFB79B2C
:10016000D0CF10926F02CDCF80917402869580938C
:100170007402B79BC6CF809174028068B6CF80911D
:100180007402FAD59C0196B390789217130609F081
:10019000B8CFE7CFE0916D01F0E0E159FE4F8083E9
:1001A000809170028F5F8093700280916D018F5FEC
:1001B00080936D018F3F09F0BBCF10926D01B8CFD6
:1001C0001F920F920FB60F9211248F938FE982BF67
:1001D00081E0809377028F910F900FBE0F901F9058
:1001E00018951F920F920FB60F9211242F938F9391
:1001F0009F93EF93FF9383B390E020916B0102C034
:10020000959587952A95E2F780FF0DC080916C0146
:10021000882349F08EB5887F8EBD1DBC1CBC8EB571
:1002200082608EBD09C08091720281110FC08EB5AF
:10023000887F8EBD1DBC1CBCFF91EF919F918F915B
:100240002F910F900FBE0F901F90189581E0809313
:100250006C01E0916E02F0E0E559FF4F80819091D2
:100260006E029F5F90936E029F3F11F410926E0298
:1002700090917202915090937202AD98000086FFA7
:1002800043C0919A0000AD9A0000AD98000085FF30
:100290003DC0919A0000AD9A0000AD98000084FF27
:1002A00037C0919A0000AD9A0000AD98000083FF1E
:1002B00031C0919A0000AD9A0000AD98000082FF15
:1002C0002BC0919A0000AD9A0000AD98000081FF0C
:1002D00025C0919A0000AD9A0000AD98000080FF03
:1002E0001FC0919A0000AD9A0000AD98919880913E
:1002F0007202882309F49BCF8EB5887F8EBD1DBC0A
:100300001CBC8EB581608DCF9198BCCF9198C2CF27
:100310009198C8CF9198CECF9198D4CF9198DACFB9
:100320009198E0CF1F920F920FB60F92112415BC37
:10033000A99A0F900FBE0F901F901895989902C020
:10034000B19911C0989B02C0B19B0FC0A09AA89808
:1003500082E08A95F1F700C086B3A098A89A81FF41
:1003600006C080E0089581E0089583E0089582E06A
:10037000089586B382FB882780F991E08927089544
:10038000B09902C0879908C0B09B08C080B380951F
:10039000881F8827881F089582E0089580E00895C7
:1003A000869902C0859906C0869B06C0859904C0BF
:1003B00088E2089584E1089580E508952FB7F894C0
:1003C000809170028823B1F0E0916E01F0E0E15974
:1003D000FE4F8081909170029150909370029091A5
:1003E0006E019F5F90936E019F3F11F410926E011A
:1003F0002FBF089580E0FCCF10926D0110926E0126
:100400001092700281E080936F028BE080936A000B
:1004100026CE90E89ABF9BB79F779BBF93988B9A05
:10042000E7ECF0E03197F1F700C00000C798BF9A01
:100430008B981092700210926D0110926E0192E0F2
:1004400090936F029BE090936A008093740294D41F
:10045000F1E08F278093760202CE809170028111A5
:10046000ADCFF2DDFACFD5DFF8DF8A3F11F0109281
:100470006F020895CF93C82F809172028F3F21F1B0
:100480009FB7F894E0916A01F0E0E559FF4FC0830F
:100490008091720221E0280F20937202811108C01E
:1004A0008EB5887F8EBD1DBC1CBC8EB581608EBD97
:1004B00080916A018F5F80936A018F3F11F41092DF
:1004C0006A019FBFCF910895BFDDD6CF837090E0C2
:1004D000633009F494E0892BCDCFCF93CFB7F89454
:1004E00010926A0110926E021092720280916C0159
:1004F00081110BC0919A82E08A95F1F700C0919822
:1005000060916B0180917A02E1DF82E08A95F1F7D8
:1005100000C09098CFBF80916C01882311F0CF91DB
:10052000089592DDF8CFEF92FF920F931F93CF9330
:10053000DF93E82EF62E142F022F282F880F330B6F
:1005400096E0359527959A95E1F723702064862FDC
:1005500082958C70282BA02FA170B0E035E0AA0FF7
:10056000BB1F3A95E1F72A2B01FBEE27E0F9F0E0FB
:10057000CF0144E0880F991F4A95E1F7822B7ADF7B
:100580008E2D8F7377DF8F2D8F7374DF80917902BB
:10059000882379F002FB002700F9C02F80E0D82FD4
:1005A00084E0CC0FDD1F8A95E1F7812F8F708C2BB3
:1005B00061DFA9988FE784BD87E085BDDF91CF918A
:1005C0001F910F91FF90EF9008958F929F92AF929D
:1005D000BF92CF92DF92EF92FF921F93CF93DF9360
:1005E000182FA39A82E08A95F1F700C0A39882E0C1
:1005F0008A95F1F700C0ECE050E040E0C12CD12C2E
:10060000760187B1807F836087B9369A3699FECFAD
:1006100084B195B1A4B1B5B14A0F5B1F9D01B7D3A9
:10062000C60ED71EE81EF91EE15059F7CA016CE04C
:1006300070E06BD3EB019B01DB01A9D34B015C01A3
:10064000C701B6012CE030E040E050E072D38216E2
:100650009306A406B506E0F4C93ED34048F0281935
:1006600039094A095B09223331054105510598F0E2
:100670001D7F82E009F484E0DF91CF911F91FF900C
:10068000EF90DF90CF90BF90AF909F908F900895A4
:10069000C93ED34068F383E0EFCFB898C09AB998C9
:1006A000C19ABA98C29ABB9AC39ABC98C49ABD9A86
:1006B000C59ABE9AC69ABF98C79AA098A89AA19AB6
:1006C000A99AA298AA98A398AB98A498AC98A59A2E
:1006D000AD98A698AE9A889A909A899A91988A9895
:1006E000929A8B98939A8C9A949A8D98959A8E98C0
:1006F000969A8F98979A85E083BF8FE982BF1FBC37
:1007000088E08EBD8FE490E09BBD8ABD12BC87E07F
:1007100085BD8FE784BD13BC80E48ABF8BBFC1E079
:10072000C5BF91E599BF90E898B910BE87B985E833
:1007300086B904DE80937A021CDE8093690020DE95
:10074000809375022DDE8093710280917A023DDFE5
:1007500080936B0184B714BE823009F4E6C108F0BF
:10076000DCC1813009F4EBC188E19EE00FB6F8945A
:10077000A89581BD0FBE91BD7894AFDE3DDE8FEFB1
:1007800072DE6BDE8A3A09F4E7C110926F0280B321
:1007900084708093780281E08093730280916F026D
:1007A000882309F0A8958091700290E02091790249
:1007B000222309F438C224E030E0821793070CF0BA
:1007C000F7C180917702882309F495C1809178025E
:1007D000882309F490C110927702809161008F5FA5
:1007E00083708093610080917302882309F460C153
:1007F000109273029FB7F8941092670010926600EF
:1008000010926500109264001092630010926200D2
:100810001092680080916A0180936E0210927202B9
:100820008EB5887F8EBD1DBC1CBC909A90989FBFD2
:100830008FE39CE90197F1F700C0000080917202FC
:100840008111FCCF80917802882309F431C1AD98E1
:100850000000919A0000AD9A0000AD9800009198B8
:100860000000AD9A0000AD98000091980000AD9A8C
:100870000000AD980000919A0000AD9A0000AD987C
:100880000000919A0000AD9A0000AD980000919888
:100890000000AD9A0000AD980000919A0000AD9A5A
:1008A0000000AD9891988FE79EE30197F1F700C0A3
:1008B000000080917902AD98882309F4B7C1000047
:1008C000919A0000AD9A0000AD9800009198000048
:1008D000AD9A0000AD980000919A0000AD9A00001A
:1008E000AD980000919A0000AD9A0000AD9800000C
:1008F00091980000AD9A0000AD980000919A000018
:10090000AD9A0000AD98000091980000AD9A0000EB
:10091000AD9891988FE79EE30197F1F700C0000032
:10092000AD980000919A0000AD9A0000AD980000CB
:1009300091980000AD9A0000AD98000091980000D9
:10094000AD9A0000AD98000091980000AD9A0000AB
:10095000AD98000091980000AD9A0000AD9800009D
:1009600091980000AD9A0000AD98000091980000A9
:10097000AD9A0000AD9891988FE79EE30197F1F74B
:1009800000C00000AD98000091980000AD9A0000F2
:10099000AD98000091980000AD9A0000AD9800005D
:1009A00091980000AD9A0000AD9800009198000069
:1009B000AD9A0000AD98000091980000AD9A00003B
:1009C000AD98000091980000AD9A0000AD9800002D
:1009D00091980000AD9A0000AD9891988FE79EE342
:1009E0000197F1F700C00000AD9800009198000059
:1009F000AD9A0000AD98000091980000AD9A0000FB
:100A0000AD98000091980000AD9A0000AD980000EC
:100A100091980000AD9A0000AD98000091980000F8
:100A2000AD9A0000AD98000091980000AD9A0000CA
:100A3000AD98000091980000AD9A0000AD98919893
:100A40008FE79EE30197F1F700C00000AD9800002A
:100A500091980000AD9A0000AD98000091980000B8
:100A6000AD9A0000AD98000091980000AD9A00008A
:100A7000AD98000091980000AD9A0000AD9800007C
:100A800091980000AD9A0000AD9800009198000088
:100A9000AD9A0000AD98000091980000AD9A00005A
:100AA000AD9891988FE79EE30197F1F700C00000A1
:100AB00090916100809175029817E8F0209168008C
:100AC00060916600709167004091640050916500EC
:100AD000E0916200F0916300809160002813DBC018
:100AE0006115710509F0D7C04115510509F0DCC049
:100AF000309709F0D9C080916F02882361F080910E
:100B0000770281114BCE80917002811147CE809186
:100B10007202811143CE98DA41CE843081F0883060
:100B200009F022CEC0936C011FCEA9982FE788E36D
:100B300091E0215080409040E1F700C000002FE795
:100B400088E391E0215080409040E1F700C0000030
:100B5000A99A10926C0108CE80DC811116CE80918A
:100B60006900882311F183EF7EDC88EC7CDC83EF65
:100B70007ADC84E678DC83EF76DC80E574DC82EF77
:100B800072DC6BDC80937902A9988FE784BD87E0E3
:100B900085BD88EE68DC83E066DC83EF64DC8091F1
:100BA000710261DC84EF5FDCF2CD10927902ECCF50
:100BB00005DC90917902992389F197E0892380934C
:100BC0006800FCDB2091660030916700280F311D22
:100BD00087FD3A953093670020936600EFDB209104
:100BE000640030916500281B310987FD33953093EF
:100BF00065002093640080917902882389F0DEDB10
:100C0000082E000C990B2091620030916300820F36
:100C1000931F9093630080936200C5CD93E0CECF85
:100C200090E080E0F0CF23E030E0C7CD0000919865
:100C30000000AD9A0000AD980000919A0000AD9AB6
:100C40000000AD980000919A0000AD9A0000AD98A8
:100C5000000091980000AD9A0000AD9800009198B6
:100C60000000AD9A0000AD980000919A0000AD9A86
:100C70000000AD980000919A0000AD9A0000AD9878
:100C800091988FE79EE30197F1F700C00000AD98BF
:100C90000000919A7ACE80E860389FEF79072CF0B7
:100CA0008FE7603871050CF4862F681B710987FD8A
:100CB0007395709367006093660060E840389FEF1B
:100CC00059072CF0642F403851050CF06FE7461B94
:100CD000510967FD5395509365004093640048EFB8
:100CE000E83F9FEFF9072CF04E2FE830F1050CF0AC
:100CF00047E0E41BF10947FDF395F0936300E093AF
:100D00006200209360000FDCF6CEAA1BBB1B51E1F2
:100D100007C0AA1FBB1FA617B70710F0A61BB70B6B
:100D2000881F991F5A95A9F780959095BC01CD0110
:100D30000895A1E21A2EAA1BBB1BFD010DC0AA1F1C
:100D4000BB1FEE1FFF1FA217B307E407F50720F034
:100D5000A21BB30BE40BF50B661F771F881F991FAF
:100D60001A9469F760957095809590959B01AC01F8
:100D7000BD01CF0108958927082E029480258C5F3C
:100D80008B7F8A5F83FD8395817099270895A29F49
:100D9000B001B39FC001A39F01D0B29F700D811D10
:0A0DA0001124911D0895F894FFCF6F
:00000001FF
