:1000000012C042C05AC02AC0A6C128C0F5C026C02E
:1000100025C0E1C023C022C021C020C01FC01EC017
:100020001DC01CC01BC011241FBECFE5D4E0DEBF25
:10003000CDBF10E0A0E6B0E0E6E1FAE002C0059036
:100040000D92A436B107D9F722E0A4E6B0E001C0D2
:100050001D92AF37B207E1F7E9D2DBC4D1CF85B744
:100060008F7885BF85B7806885BF889585B78F777E
:1000700085BF089580E88ABF8BB780688BBF85B73E
:10008000837F886085BF08951F920F920FB60F92ED
:1000900011248F9380B3847080937C0280917C02C2
:1000A000882329F081E08093770280937B028F91EF
:1000B0000F900FBE0F901F9018951F920F920FB6C2
:1000C0000F9211242F933F938F939F93EF93FF935E
:1000D00080917302882329F1809173028230B9F5EF
:1000E00080916E008230A9F0833079F0813021F167
:1000F0008091780280FF07C0BF9880917802869532
:100100008093780209C0BF9AF8CF80917A02882341
:1001100011F0BF9801C0BF9A80916E00815080930A
:100120006E00FF91EF919F918F913F912F910F90D2
:100130000FBE0F901F90189586B38095881F882753
:10014000881F809373028CE080936E00E5CF8091CE
:100150006E008230F9F08B3069F0813081F4B79B0A
:1001600006C080917802909174029F3FF1F4109242
:100170007302E9CFB79BD0CF10927302CDCF80919D
:100180007802869580937802B79BC6CF80917802DB
:100190008068B6CF8091780231D49C0196B3907874
:1001A0009217130609F0B8CFE7CFE0917101F0E0A4
:1001B000ED58FE4F8083809174028F5F80937402AC
:1001C000809171018F5F809371018F3F09F0BBCFE8
:1001D00010927101B8CF1F920F920FB60F92112497
:1001E0008F938FE982BF81E080937B028F910F9084
:1001F0000FBE0F901F9018951F920F920FB60F927F
:1002000011242F938F939F93EF93FF9383B3E091E8
:100210006F0190E0F0E0E05AFF4F208102C0959519
:1002200087952A95E2F780FF0DC0809170018823A1
:1002300049F08EB5887F8EBD1DBC1CBC8EB582601A
:100240008EBD09C08091760281110FC08EB5887F66
:100250008EBD1DBC1CBCFF91EF919F918F912F9182
:100260000F900FBE0F901F90189581E08093700142
:10027000E0917202F0E0E159FF4F808190917202AB
:100280009F5F909372029F3F11F4109272029091BF
:100290007602915090937602AD98000087FF4BC094
:1002A000919A0000AD9A0000AD98000086FF45C00D
:1002B000919A0000AD9A0000AD98000085FF3FC004
:1002C000919A0000AD9A0000AD98000084FF39C0FB
:1002D000919A0000AD9A0000AD98000083FF33C0F2
:1002E000919A0000AD9A0000AD98000082FF2DC0E9
:1002F000919A0000AD9A0000AD98000081FF27C0E0
:10030000919A0000AD9A0000AD98000080FF21C0D6
:10031000919A0000AD9A0000AD9891988091760274
:10032000882309F493CF8EB5887F8EBD1DBC1CBC7D
:100330008EB5816085CF9198B4CF9198BACF9198BE
:10034000C0CF9198C6CF9198CCCF9198D2CF9198A9
:10035000D8CF9198DECF1F920F920FB60F92112433
:1003600015BCA99A0F900FBE0F901F9018959899E1
:1003700002C0B19911C0989B02C0B19B0FC0A09A56
:10038000A89882E08A95F1F700C086B3A098A89A51
:1003900081FF06C080E0089581E0089583E008951C
:1003A00082E0089586B382FB882780F991E089274F
:1003B0000895B09902C0879908C0B09B08C080B367
:1003C0008095881F8827881F089582E0089580E01F
:1003D0000895869902C0859906C0869B06C08599B6
:1003E00004C088E2089584E1089580E508952FB758
:1003F000F894809174028823B1F0E0917201F0E0EA
:10040000ED58FE4F80819091740291509093740248
:10041000909172019F5F909372019F3F11F410922F
:1004200072012FBF089580E0FCCF109271011092ED
:1004300072011092740281E0809373028BE08093CA
:100440006E0018CE90E89ABF9BB79F779BBF93989A
:100450008B9AE7ECF0E03197F1F700C00000C79805
:10046000BF9A8B98109274021092710110927201CF
:1004700092E0909373029BE090936E0080937802D9
:10048000BDD2F1E08F2780937A02F4CD809174027F
:100490008111ADCFE4DDFACFD5DFF8DF8A3F11F06F
:1004A000109273020895CF93C82F809176028F3FE8
:1004B00021F19FB7F894E0916E01F0E0E159FF4F10
:1004C000C0838091760221E0280F2093760281116B
:1004D00008C08EB5887F8EBD1DBC1CBC8EB58160EA
:1004E0008EBD80916E018F5F80936E018F3F11F4FE
:1004F00010926E019FBFCF910895B1DDD6CF20E15C
:10050000429FA001112440738370482B24E0629F16
:10051000C00111248C70842BC6CF909A8FB7F894A9
:1005200010926E0110927202109276021092700177
:10053000AD98919890988FBF60916F0180917E02E5
:1005400043E0DDDF80917001882311F080E0ABCFC4
:1005500086DDF8CFEF92FF920F931F93CF93DF9337
:10056000E82EF62E142F022F282F880F330B96E03B
:10057000359527959A95E1F723702064862F82950B
:100580008C70282BA02FA170B0E035E0AA0FBB1F04
:100590003A95E1F72A2B01FBEE27E0F9F0E0CF01D5
:1005A00044E0880F991F4A95E1F7822B7CDF8E2D5E
:1005B0008F7379DF8F2D8F7376DF80917D02882393
:1005C00079F002FB002700F9C02F80E0D82F84E0EB
:1005D000CC0FDD1F8A95E1F7812F8F708C2B63DFA5
:1005E000A9988FE784BD87E085BDDF91CF911F91EA
:1005F0000F91FF90EF900895AB9A9AE19A95F1F7D9
:1006000000C097B1907F936097B9369A3699FECF24
:1006100024B135B1AB982130324020F08D7F21F0EC
:1006200082E0089583E0089581E00895B898C09A23
:10063000B998C19ABA98C29ABB9AC39ABC98C49AFC
:10064000BD9AC59ABE9AC69ABF98C79AA098A89A0A
:10065000A19AA99AA298AA98A398AB98A498AC98A2
:10066000A59AAD98A698AE9A889A909A899A9198E8
:100670008A98929A8B98939A8C9A949A8D98959A34
:100680008E98969A8F98979A85E083BF8FE982BF5C
:100690001FBC88E08EBD8FE490E09BBD8ABD12BC7C
:1006A00087E085BD8FE784BD13BC80E48ABF8BBF24
:1006B00081E085BF81E589BF80E888B910BE17B8A1
:1006C00085E886B954DE80937E026CDE80936D00EF
:1006D00070DE809379027DDE8093750280917E02C8
:1006E0008BDF80936F0184B714BE823059F4A998D0
:1006F0002FEF80E792E0215080409040E1F700C06A
:100700000000A99A88E19EE00FB6F894A89581BDF3
:100710000FBE91BD789401DF88DE8FEFBDDEB6DEBF
:100720008A3A09F474C01092730291E090937B02AC
:1007300080B3847080937C029093770280917302DF
:10074000882309F0A89580917B02882309F44DC085
:1007500080917C02882309F448C010927B02C091EA
:100760006C00CF5FC370C0936C00809177028823C8
:1007700009F4D2C0109277024FB7F89480917402B6
:1007800090E020917D02222309F48CC024E030E027
:10079000821793070CF084C080916E0180937202DF
:1007A000109276028EB5887F8EBD1DBC1CBC4FBFDB
:1007B0002FEF80E792E0215080409040E1F700C0A9
:1007C000000080917C02882381F08DE46CDE8091B2
:1007D0007D02882351F08AE566DE80E464DE80E0F5
:1007E00062DE80E060DE80E05EDE8091730288235E
:1007F00061F080917B028111A1CF809174028111FF
:100800009DCF80917602811199CF29DC97CF3EDE72
:10081000811189CF80916D00882311F183EF3CDE37
:1008200088EC3ADE83EF38DE84E636DE83EF34DEB2
:1008300080E532DE82EF30DE29DE80937D02A998EA
:100840008FE784BD87E085BD88EE26DE83E024DE69
:1008500083EF22DE809175021FDE84EF1DDE65CFFF
:1008600010927D02ECCF80917402815080937402CB
:10087000809172018F5F809372018F3F11F410920B
:1008800072019F5F692F70E080917D0224E030E06B
:10089000811102C023E030E06217730724F36ECFAA
:1008A00090E0F0CF23E030E073CFA1DD90917D02A6
:1008B000992309F460C097E0892380936B0097DD4A
:1008C0002091690030916A00280F311D87FD3A950B
:1008D00030936A00209369008ADD2091670030918F
:1008E0006800281B310987FD3395309368002093F9
:1008F000670080917D02882309F43FC078DD082ECF
:10090000000C990B2091650030916600820F931FB7
:1009100090936600809365008091740290E020912E
:100920007D02222369F124E030E0821793070CF066
:10093000BCCF80917902C81708F457CF20916B0083
:100940006091690070916A00409167005091680061
:10095000E0916500F091660080916400281313C057
:100960006115710581F44115510519F4309709F4A9
:100970003CCF862F10C093E09FCF90E080E0C2CFA5
:1009800023E030E0D2CF60388FEF7807A4F18FE713
:100990006038710574F3681B710987FD7395709356
:1009A0006A006093690060E840389FEF59072CF0B7
:1009B000642F403851050CF06FE7461B510967FD65
:1009C0005395509368004093670048EFE83F9FEFCE
:1009D000F9072CF04E2FE830F1050CF047E0E41B4E
:1009E000F10947FDF395F0936600E09365002093CD
:1009F0006400B0DDFACE80E8CECF8927082E0294BD
:100A000080258C5F8B7F8A5F83FD8395817099271A
:060A10000895F894FFCFE9
:040A160000040203D3
:00000001FF
