:1000000012C037C056C02AC0A2C128C0F1C026C045
:1000100025C0DDC023C022C021C020C01FC01EC01B
:100020001DC01CC01BC011241FBECFE5D4E0DEBF25
:10003000CDBF10E0A0E6B0E0E4E7F9E002C0059033
:100040000D92A436B107D9F721E0A4E6B0E001C0D3
:100050001D92AF37B207E1F7D7D28AC4D1CF80E87B
:100060008ABF8BB780688BBF85B7837F886085BF69
:1000700008951F920F920FB60F9211248F938091C3
:10008000E60080936D01109273018EB5887F8EBD5E
:100090001DBC1CBC80B384708093790181E0809387
:1000A0007401809378018F910F900FBE0F901F9075
:1000B00018951F920F920FB60F9211242F933F9312
:1000C0008F939F93EF93FF9380917001882329F181
:1000D000809170018230B9F5809165008230A9F07D
:1000E000833079F0813021F18091750180FF07C064
:1000F000BF988091750186958093750109C0BF9A5C
:10010000F8CF80917701882311F0BF9801C0BF9A82
:1001100080916500815080936500FF91EF919F91E0
:100120008F913F912F910F900FBE0F901F901895B8
:1001300086B38095881F8827881F809370018CE084
:1001400080936500E5CF809165008230F9F08B30B7
:1001500069F0813081F4B79B06C080917501909160
:10016000710197FF1EC010927001E9CFB79BD0CFED
:1001700010927001CDCF80917501869580937501A5
:10018000B79BC6CF809175018068B6CF809175010D
:10019000E4D39C0196B390789217130609F0B8CF78
:1001A000E7CFE091EB00F0E0E351FF4F80838091D7
:1001B00071018F5F809371018091EB008F5F80935D
:1001C000EB00803809F0BBCF1092EB00B8CF1F9244
:1001D0000F920FB60F9211248F938FE982BF81E0A7
:1001E000809378018F910F900FBE0F901F901895FC
:1001F0001F920F920FB60F9211242F938F939F93FC
:10020000EF93FF9383B3E091E70090E0F0E0E05AD2
:10021000FF4F208102C0959587952A95E2F780FFD0
:100220000DC08091EA00882349F08EB5887F8EBD8D
:100230001DBC1CBC8EB582608EBD09C0809173014F
:1002400081110FC08EB5887F8EBD1DBC1CBCFF9177
:10025000EF919F918F912F910F900FBE0F901F9054
:10026000189581E08093EA00E0916D01F0E0EA5991
:10027000FF4F808190916D019F5F90936D01903849
:1002800011F410926D01909173019150909373014C
:10029000AD98000087FF4BC0919A0000AD9A000016
:1002A000AD98000086FF45C0919A0000AD9A00000D
:1002B000AD98000085FF3FC0919A0000AD9A000004
:1002C000AD98000084FF39C0919A0000AD9A0000FB
:1002D000AD98000083FF33C0919A0000AD9A0000F2
:1002E000AD98000082FF2DC0919A0000AD9A0000E9
:1002F000AD98000081FF27C0919A0000AD9A0000E0
:10030000AD98000080FF21C0919A0000AD9A0000D6
:10031000AD98919880917301882309F493CF8EB59D
:10032000887F8EBD1DBC1CBC8EB5816085CF919829
:10033000B4CF9198BACF9198C0CF9198C6CF9198E9
:10034000CCCF9198D2CF9198D8CF9198DECF1F92F1
:100350000F920FB60F92112415BCA99A0F900FBEE1
:100360000F901F901895989902C0B19911C0989B51
:1003700002C0B19B0FC0A09AA89882E08A95F1F7BD
:1003800000C086B3A098A89A81FF06C080E00895B7
:1003900081E0089583E0089582E0089586B382FBAA
:1003A000882780F991E089270895B09902C087993C
:1003B00008C0B09B08C080B38095881F8827881F1D
:1003C000089582E0089580E00895869902C0859995
:1003D00006C0869B06C0859904C088E2089584E122
:1003E000089580E508952FB7F894809171018823CE
:1003F000B1F0E091EC00F0E0E351FF4F808190918B
:1004000071019150909371019091EC009F5F9093D6
:10041000EC00903811F41092EC002FBF089580E0AA
:10042000FCCF1092EB001092EC001092710181E071
:10043000809370018BE08093650011CE90E89ABFA5
:100440009BB79F779BBF93988B9AE7ECF0E031972F
:10045000F1F700C00000C798BF9A8B981092710105
:100460001092EB001092EC0092E0909370019BE0F0
:10047000909365008093750170D2F1E08F2780938F
:100480007701EDCD809171018823E1F3ACCFD6DF08
:10049000F9DF8A3F11F01092700108959091730175
:1004A0009038E1F39FB7F894E091E600F0E0EA5964
:1004B000FF4F80838091730121E0280F2093730107
:1004C000811108C08EB5887F8EBD1DBC1CBC8EB549
:1004D00081608EBD8091E6008F5F8093E60080385A
:1004E00011F41092E6009FBF089594E0699FB00157
:1004F00011246C708370862BD1CF909A9FB7F8949B
:100500001092E60010926D01109273011092EA00B1
:100510009098AD98919880B384708093790181E030
:10052000809374019FBF6091E70080917E01DDCFD1
:10053000EF92FF920F931F93CF93DF93E82EF62E47
:10054000142F022F282F880F330B96E0359527950F
:100550009A95E1F723702064862F82958C70282B62
:10056000A02FA170B0E035E0AA0FBB1F3A95E1F7CC
:100570002A2B01FBEE27E0F9F0E0CF0144E0880FE1
:10058000991F4A95E1F7822B89DF8E2D8F7386DFC5
:100590008F2D8F7383DF80917D01882379F002FB9B
:1005A000002700F9C02F80E0D82F85E0CC0FDD1F99
:1005B0008A95E1F7812F8F708C2B70DFA9988FE7D8
:1005C00084BD87E085BDDF91CF911F910F91FF9092
:1005D000EF900895AB9A9AE19A95F1F700C097B120
:1005E000907F936097B9369A3699FECF24B135B192
:1005F000AB982130324020F08D7F21F082E00895C9
:1006000083E0089581E00895B898C09AB998C19A96
:10061000BA98C29ABB9AC39ABC98C49ABD9AC59A12
:10062000BE9AC69ABF98C79AA098A89AA19AA99A62
:10063000A298AA98A398AB98A498AC98A59AAD98BC
:10064000A698AE9A889A909A899A91988A98929A3E
:100650008B98939A8C9A949A8D98959A8E98969A4C
:100660008F98979A85E083BF8FE982BF1FBC88E08F
:100670008EBD8FE490E09BBD8ABD12BC87E085BD36
:100680008FE784BD13BC80E48ABF8BBF81E085BF48
:1006900081E589BF80E888B910BE17B885E886B9BA
:1006A00062DE80937E017ADE809364007EDE80933A
:1006B00076018BDE8093720180917E018BDF8093C7
:1006C000E70084B714BE823059F4A9982FEF80E771
:1006D00092E0215080409040E1F700C00000A99ACC
:1006E00088E19EE00FB6F894A89581BD0FBE91BD3C
:1006F000789403DF96DE8FEFCADEC4DE8A3A09F40F
:10070000BFC010927001C0E0D0E0809170018823DA
:1007100009F0A895809178018823B9F38091790137
:10072000882399F310927801CF5FC3708091740190
:100730008823B1F08FE59DE60197F1F700C0000036
:100740008DE4ACDE9FEB29E881E0915020408040B1
:10075000E1F700C0000083E3A1DE10927401C0E065
:100760008091710190E020917D012111E6C023E08C
:1007700030E0821793070CF0AFC080917601C81764
:1007800008F467C080917C018D1313C080917A01B9
:1007900090917B01892B69F48091E8009091E900A8
:1007A000892B39F480916E0190916F01892B09F4A6
:1007B00050C080917A0190917B0180382FEF920791
:1007C0000CF4BEC0803891050CF0BCC020917A01B9
:1007D00030917B01281B310987FD339530937B01D4
:1007E00020937A016091E8007091E90060389FEFF2
:1007F00079070CF4A9C0603871050CF0A7C02091EE
:10080000E8003091E900261B310967FD33953093EC
:10081000E9002093E80040916E0150916F01483F3C
:100820002FEF52070CF494C0483051050CF092C0E1
:1008300020916E0130916F01241B310947FD3395E2
:1008400030936F0120936E01D0917C0120917C0147
:100850006FDE80917801811158CF809171018111F3
:1008600054CF80917301811150CF85B78F7885BFA8
:1008700085B7806885BF889585B78F7785BF45CF59
:1008800001DE81113ECF80916400882311F183EF56
:10089000FEDD88ECFCDD83EFFADD84E6F8DD83EF36
:1008A000F6DD80E5F4DD82EFF2DDECDD80937D01A5
:1008B000A9988FE784BD87E085BD88EEE8DD83E0F9
:1008C000E6DD83EFE4DD80917201E1DD84EFDFDDC1
:1008D0001ACF10927D01ECCF86DD877080937C016A
:1008E00082DD20917A0130917B01280F311D87FD37
:1008F0003A9530937B0120937A0175DD2091E800D1
:100900003091E900281B310987FD33953093E900C8
:100910002093E80080917D01882309F421CF63DDD5
:1009200020916E0130916F01280F311D87FD3A959E
:1009300030936F0120936E0113CF24E030E019CF84
:1009400080E844CF8FE742CF60E859CF6FE757CFB9
:1009500048EF6ECF47E06CCF8927082E02948025A0
:100960008C5F8B7F8A5F83FD8395817099270895C3
:04097000F894FFCF29
:040974000004020376
:00000001FF
