:1000000012C042C05AC02AC0A6C128C0F5C026C02E
:1000100025C0E1C023C022C021C020C01FC01EC017
:100020001DC01CC01BC011241FBECFE5D4E0DEBF25
:10003000CDBF10E0A0E6B0E0EAEBF9E002C0059029
:100040000D92A436B107D9F721E0A4E6B0E001C0D3
:100050001D92A138B207E1F7E9D2ADC4D1CF85B77F
:100060008F7885BF85B7806885BF889585B78F777E
:1000700085BF089580E88ABF8BB780688BBF85B73E
:10008000837F886085BF08951F920F920FB60F92ED
:1000900011248F9380B3847080937E0180917E01C0
:1000A000882329F081E08093790180937D018F91ED
:1000B0000F900FBE0F901F9018951F920F920FB6C2
:1000C0000F9211242F933F938F939F93EF93FF935E
:1000D00080917501882329F1809175018230B9F5ED
:1000E00080916E008230A9F0833079F0813021F167
:1000F00080917A0180FF07C0BF9880917A01869530
:1001000080937A0109C0BF9AF8CF80917C0188233F
:1001100011F0BF9801C0BF9A80916E00815080930A
:100120006E00FF91EF919F918F913F912F910F90D2
:100130000FBE0F901F90189586B38095881F882753
:10014000881F809375018CE080936E00E5CF8091CD
:100150006E008230F9F08B3069F0813081F4B79B0A
:1001600006C080917A019091760197FF1EC010928F
:100170007501E9CFB79BD0CF10927501CDCF80919B
:100180007A01869580937A01B79BC6CF80917A01D8
:100190008068B6CF80917A0103D49C0196B39078A1
:1001A0009217130609F0B8CFE7CFE091F200F0E024
:1001B000EC50FF4F8083809176018F5F80937601B2
:1001C0008091F2008F5F8093F200803809F0BBCFFE
:1001D0001092F200B8CF1F920F920FB60F92112417
:1001E0008F938FE982BF81E080937D018F910F9083
:1001F0000FBE0F901F9018951F920F920FB60F927F
:1002000011242F938F939F93EF93FF9383B3E091E8
:10021000F00090E0F0E0E05AFF4F208102C0959599
:1002200087952A95E2F780FF0DC08091F100882321
:1002300049F08EB5887F8EBD1DBC1CBC8EB582601A
:100240008EBD09C08091780181110FC08EB5887F65
:100250008EBD1DBC1CBCFF91EF919F918F912F9182
:100260000F900FBE0F901F90189581E08093F100C2
:10027000E0917401F0E0E159FF4F808190917401A9
:100280009F5F90937401903811F4109274019091D3
:100290007801915090937801AD98000087FF4BC092
:1002A000919A0000AD9A0000AD98000086FF45C00D
:1002B000919A0000AD9A0000AD98000085FF3FC004
:1002C000919A0000AD9A0000AD98000084FF39C0FB
:1002D000919A0000AD9A0000AD98000083FF33C0F2
:1002E000919A0000AD9A0000AD98000082FF2DC0E9
:1002F000919A0000AD9A0000AD98000081FF27C0E0
:10030000919A0000AD9A0000AD98000080FF21C0D6
:10031000919A0000AD9A0000AD9891988091780173
:10032000882309F493CF8EB5887F8EBD1DBC1CBC7D
:100330008EB5816085CF9198B4CF9198BACF9198BE
:10034000C0CF9198C6CF9198CCCF9198D2CF9198A9
:10035000D8CF9198DECF1F920F920FB60F92112433
:1003600015BCA99A0F900FBE0F901F9018959899E1
:1003700002C0B19911C0989B02C0B19B0FC0A09A56
:10038000A89882E08A95F1F700C086B3A098A89A51
:1003900081FF06C080E0089581E0089583E008951C
:1003A00082E0089586B382FB882780F991E089274F
:1003B0000895B09902C0879908C0B09B08C080B367
:1003C0008095881F8827881F089582E0089580E01F
:1003D0000895869902C0859906C0869B06C08599B6
:1003E00004C088E2089584E1089580E508952FB758
:1003F000F894809176018823B1F0E091F300F0E069
:10040000EC50FF4F8081909176019150909376014E
:100410009091F3009F5F9093F300903811F4109245
:10042000F3002FBF089580E0FCCF1092F2001092ED
:10043000F3001092760181E0809375018BE0809348
:100440006E0018CE90E89ABF9BB79F779BBF93989A
:100450008B9AE7ECF0E03197F1F700C00000C79805
:10046000BF9A8B98109276011092F2001092F300CE
:1004700092E0909375019BE090936E0080937A01D7
:100480008FD2F1E08F2780937C01F4CD80917601AB
:100490008111ADCFE4DDFACFD5DFF8DF8A3F11F06F
:1004A000109275010895CF93C82F809178018038FC
:1004B00021F19FB7F894E091EF00F0E0E159FF4F90
:1004C000C0838091780121E0280F20937801811169
:1004D00008C08EB5887F8EBD1DBC1CBC8EB58160EA
:1004E0008EBD8091EF008F5F8093EF00803811F414
:1004F0001092EF009FBFCF910895B1DDD6CF94E069
:10050000699FB00111246C708370862BCCCF909AB8
:100510009FB7F8941092EF00109274011092780136
:100520001092F100AD98919880B3847080937E0111
:1005300081E08093790190989FBF6091F000809155
:100540008001DDDF8091F100882311F080E0ABCFE6
:1005500086DDF8CFEF92FF920F931F93CF93DF9337
:10056000E82EF62E142F022F282F880F330B96E03B
:10057000359527959A95E1F723702064862F82950B
:100580008C70282BA02FA170B0E035E0AA0FBB1F04
:100590003A95E1F72A2B01FBEE27E0F9F0E0CF01D5
:1005A00044E0880F991F4A95E1F7822B7CDF8E2D5E
:1005B0008F7379DF8F2D8F7376DF80917F01882392
:1005C00079F002FB002700F9C02F80E0D82F84E0EB
:1005D000CC0FDD1F8A95E1F7812F8F708C2B63DFA5
:1005E000A9988FE784BD87E085BDDF91CF911F91EA
:1005F0000F91FF90EF900895AB9A9AE19A95F1F7D9
:1006000000C097B1907F936097B9369A3699FECF24
:1006100024B135B1AB982130324020F08D7F21F0EC
:1006200082E0089583E0089581E00895B898C09A23
:10063000B998C19ABA98C29ABB9AC39ABC98C49AFC
:10064000BD9AC59ABE9AC69ABF98C79AA098A89A0A
:10065000A19AA99AA298AA98A398AB98A498AC98A2
:10066000A59AAD98A698AE9A889A909A899A9198E8
:100670008A98929A8B98939A8C9A949A8D98959A34
:100680008E98969A8F98979A85E083BF8FE982BF5C
:100690001FBC88E08EBD8FE490E09BBD8ABD12BC7C
:1006A00087E085BD8FE784BD13BC80E48ABF8BBF24
:1006B00081E085BF81E589BF80E888B910BE17B8A1
:1006C00085E886B954DE809380016CDE80936D00EE
:1006D00070DE80937B017DDE8093770180918001C5
:1006E0008BDF8093F00084B714BE823059F4A99850
:1006F0002FEF80E792E0215080409040E1F700C06A
:100700000000A99A88E19EE00FB6F894A89581BDF3
:100710000FBE91BD7894FBDE88DE8FEFBDDEB6DEC6
:100720008A3A09F461C0109275018091750188239D
:1007300009F0A89580917D01882309F443C0809138
:100740007E01882309F43EC010927D01C0916C00A7
:10075000CF5FC370C0936C0080917901882309F446
:10076000B4C0109279019FB7F8948091EF00809304
:100770007401109278018EB5887F8EBD1DBC1CBCA3
:100780009FBF8FE295E70197F1F700C000008DE46D
:100790008ADE9FEB29E881E0915020408040E1F71C
:1007A00000C0000083E37FDE8091760190E020911D
:1007B0007F01222309F457C024E030E08217930719
:1007C0000CF04CC080917501882361F080917D010F
:1007D0008111ABCF809176018111A7CF80917801F3
:1007E0008111A3CF3CDCA1CF51DE81119CCF809140
:1007F0006D00882311F183EF4FDE88EC4DDE83EF2F
:100800004BDE84E649DE83EF47DE80E545DE82EF9E
:1008100043DE3CDE80937F01A9988FE784BD87E0AB
:1008200085BD88EE39DE83E037DE83EF35DE8091EB
:10083000770132DE84EF30DE78CF10927F01ECCF8B
:10084000D6DDCF5F2C2F30E080917F01882341F0EF
:1008500084E090E0281739079CF3A6CFC0E0F2CFE0
:1008600083E090E0F7CF23E030E0A8CFC0DD8770D1
:1008700080936B00BCDD2091690030916A00280FE5
:10088000311D87FD3A9530936A0020936900AFDDF2
:100890002091670030916800281B310987FD33954E
:1008A000309368002093670080917F01882369F06E
:1008B0009EDD2091650030916600280F311D87FD77
:1008C0003A9530936600209365008091760190E020
:1008D00020917F01222339F124E030E08217930731
:1008E0002CF680917B01C81708F46CCF20916B0027
:1008F0006091690070916A004091670050916800B2
:10090000E0916500F09166008091640028130EC0AC
:100910006115710559F44115510519F4309709F421
:1009200051CF862F0CC023E030E0D8CF80E860386C
:100930009FEF790724F08FE76038710594F3681B07
:10094000710987FD739570936A006093690060E890
:1009500040389FEF59072CF0642F403851050CF0B8
:100960006FE7461B510967FD53955093680040930C
:10097000670048EFE83F9FEFF9072CF04E2FE83073
:10098000F1050CF047E0E41BF10947FDF395F09306
:100990006600E093650020936400DCDD13CF8927B7
:1009A000082E029480258C5F8B7F8A5F83FD839560
:0A09B000817099270895F894FFCF95
:0409BA000004020330
:00000001FF
