:1000000012C066C02BC02AC0C7C128C027C026C0E6
:1000100025C0F2C123C022C021C020C01FC01EC005
:100020001DC01CC01BC011241FBECFE5D4E0DEBF25
:10003000CDBF10E0A0E6B0E0E6EBF5E002C0059031
:100040000D92AE39B107D9F721E0AEE9B0E001C0B9
:100050001D92A23BB207E1F70AD2ABC2D1CF909179
:10006000AB01E091A600F0E0E855FF4F808380915E
:10007000AB018F5F8093AB018091A6008F5F80936F
:10008000A6000895F8948091AB01882391F0E09147
:10009000A700F0E0E855FF4F80819091AB019150AF
:1000A0009093AB019091A7009F5F9093A7007894E5
:1000B000089580E0FCCF982F92958927982F9695E8
:1000C00096959827892F8695892780958170089520
:1000D0001F920F920FB60F9211242F933F934F93BD
:1000E0005F936F937F938F939F93AF93BF93EF93A0
:1000F000FF938091AA01882329F18091AA0182307F
:10010000E9F58091A1008230A9F0833079F0813047
:1001100051F18091AC0180FF07C08C988091AC01B7
:1001200086958093AC0109C08C9AF8CF8091AD017F
:10013000882311F08C9801C08C9A8091A100815085
:100140008093A100FF91EF91BF91AF919F918F910B
:100150007F916F915F914F913F912F910F900FBEC3
:100160000F901F901895849B03C01092AA0102C0A3
:100170008093AA018CE08093A100DFCF8091A10041
:100180008230D1F08B3041F0813059F4849BEDCF37
:100190008091AC0164DFEECF849BCFCF1092AA0197
:1001A000CCCF8091AC0186958093AC01849BC5CF68
:1001B0008091AC018068B5CF8091AC017CDF90B3B9
:1001C000929591708913EACFB8CF8A988C98109243
:1001D000A6001092A7001092AB0181E08093AA01C3
:1001E0008BE08093A10080E48ABF8BB780648BBFD3
:1001F00085B78C7F826085BF0895CF93C0E4CABF66
:100200009BB79F7B9BBF92988A9AE7ECF0E031976F
:10021000F1F700C0000094988C9A8A981092AB0174
:100220001092A6001092A70092E09093AA019BE082
:100230009093A1008093AC013EDF8093AD01CABFD3
:100240008BB780648BBF85B78C7F826085BFCF9171
:1002500008958091AB018823E1F314CFCEDFF9DF5D
:100260008A3F11F01092AA010895BD9ABB9ABA9ADA
:10027000BC98C29AC398C5980895282F98E080E04A
:1002800027FF12C0C59A220F3DE03A95F1F7000012
:10029000C39A880FB49981603DE03A95F1F7000068
:1002A000C398915069F70895C598EDCF0F931F93A8
:1002B000CF93DF93182FD62FC42F022FC2988AEA2C
:1002C000DCDF802FDADF812FD8DF8D2FD6DF8C2F78
:1002D000D4DFC29ADF91CF911F910F910895959A23
:1002E00014BC87E085BD08951092B1012091B00142
:1002F0006091AE017091AF014091A4005091A500B2
:10030000E091A801F091A90180919F00281309C0F4
:100310006115710531F44115510539F4309729F40F
:10032000089560388FEF7807ACF1862F603871053B
:100330000CF08FE7681B710987FD73957093AF010F
:100340006093AE0160E840389FEF59072CF0642FAE
:10035000403851050CF06FE7461B510967FD539576
:100360005093A5004093A40048EFE83F9FEFF907A2
:100370002CF04E2FE830F1050CF047E0E41BF109BA
:1003800047FDF395F093A901E093A80120939F0006
:100390008DDFA5CF80E8CECF1F920F920FB60F92C0
:1003A000112415BC95980F900FBE0F901F901895B3
:1003B0008091AB01833008F4089564DE87708093E8
:1003C000B00160DE2091AE013091AF01280F311DE8
:1003D00087FD3A953093AF012093AE0153DE209113
:1003E000A4003091A500281B310987FD3395309377
:1003F000A5002093A400DCCF1F920F920FB60F929E
:1004000011242F938F939F938DE382BF8091A0003F
:10041000982F91709093B1018F5F8093A00083B368
:10042000982F977020919E00211104C080FD14C068
:1004300010926000973019F482E380939E008091BF
:100440009E00815080939E009F918F912F910F90DD
:100450000FBE0F901F90189581FD04C081E080931E
:100460006000E8CF82FDF0CF82E0F9CF1FCF90E0AF
:1004700080E086D08093A200833018F081E08093E2
:10048000A20080E287BB94E098BB14BA87E085BBEA
:1004900022E221BB12BA25E023BF2DE322BF12BC0A
:1004A00085BD14BC13BC8BB780688BBF95BF90E82B
:1004B0009ABF19BE89B7816489BF98B910BE88E117
:1004C0009EE00FB6F894A89581BD0FBE91BD7894BB
:1004D0007CDE8FEFC3DEBDDE8A3AE1F11092AA0125
:1004E000C4DEFDDECDE3DFEF8091B1018111FCDEE2
:1004F0005FDF8091B101882311F0C2BFF5DE60910A
:1005000060006F3F39F06093A20090E080E040D03F
:10051000D09360008091A300811116C08091B0013A
:100520008370833089F48091A8019091A90197FF8D
:100530001FC08091A200882319F081508093A200EF
:100540001092A9011092A8018091AA01882361F25A
:10055000A895CACF7EDE8111C1CF88EE7FDE83E011
:100560007DDE83EF7BDE88E279DE84EF77DEB8CF55
:10057000892B51F38091A200823010F78F5FDECF7C
:10058000E199FECF9FBB8EBBE09A99278DB308956A
:10059000262FE199FECF9FBB8EBBE09A01970DB24B
:1005A000021631F02DBB0FB6F894E29AE19A0FBE15
:0605B0000895F894FFCF4E
:1005B600FF4D5A40000000080124252D231010107D
:1005C600113C3C2D2F3533253C302E301026102182
:1005D6003C252D23003323322F2C2C292E270033A4
:0E05E600253229212C002D2F35332521150912
:00000001FF
